:020000040800F2
:10000000C00B0020A1010008B7340008F92E000839
:10001000B5340008F91300088F390008000000000B
:10002000000000000000000000000000033800088D
:1000300031160008000000000138000805380008EB
:10004000BB010008BB010008BB010008BB010008A0
:10005000BB010008BB010008BB010008BB01000890
:10006000BB010008BB010008BB010008BB01000880
:10007000BB010008BB010008BB010008BB01000870
:10008000BB010008BB010008BB010008BB01000860
:10009000BB010008BB010008BB010008BB01000850
:1000A000BB010008BB010008BB010008BB01000840
:1000B0007D380008BB010008BB010008BB01000837
:1000C000BB010008BB010008BB010008BB01000820
:1000D000BB010008BB010008BB010008BB01000810
:1000E000BB010008BB010008BB01000800F002F8DA
:1000F00000F047F80AA090E8000C82448344AAF17B
:100100000107DA4501D100F03CF8AFF2090EBAE878
:100110000F0013F0010F18BFFB1A43F0010318473B
:10012000E062000000630000103A24BF78C878C184
:10013000FAD8520724BF30C830C144BF04680C60ED
:10014000704700000023002400250026103A28BF35
:1001500078C1FBD8520728BF30C148BF0B60704739
:10016000662904F06B81002070471FB500F02AFB60
:1001700004000020002103F049FDE0601FBD10B520
:1001800010BD00F01FFC1146FFF7EFFF03F03AFC33
:1001900000F03DFC03B4FFF7F2FF03BC00F080FC6D
:1001A0000948804709480047FEE7FEE7FEE7FEE70B
:1001B000FEE7FEE7FEE7FEE7FEE7FEE70448054947
:1001C000054A064B704700007B380008ED00000828
:1001D000C0050020C00B0020C0070020C007002081
:1001E0000FB41CB5074B06AA7B44694600900598DE
:1001F00000F0CFFA0020694600F0DEFA1CBC5DF882
:1002000014FB0000CD0500002DE9F0474FF0000A77
:1002100089460446C0F820A02046E16888470028A7
:1002200076D0252806D0D4E901219047206A401CC9
:100230002062F1E7E168204600258847C4F81CA049
:1002400006460027C4F818A02A2E09D0304603F02D
:10025000C3FB38B304EB8708303EC8F8186019E0D8
:1002600059F8041B204604EB87029161E168884736
:10027000012F064618D1E069002820DA25F0200574
:100280001DE0D8F8180000EB800006EB4000303885
:10029000C8F818002046E1688847064603F09CFB32
:1002A0000028EED1012F0AD02E2E08D12046E16879
:1002B00088477F1C0646022F45F02005C4DBA06955
:1002C000002803DA404245F00105A061E80701D0AB
:1002D00025F01005B6B1A6F14100192802D8203644
:1002E00045F400654A463146204625604D46FFF7F5
:1002F00037FF58B1012806D0ED1D25F0070000F1A9
:10030000080989E704E005F1040985E730468AE732
:10031000206ABDE8F0874FF0000200B5134694460E
:100320009646203922BFA0E80C50A0E80C50B1F14D
:100330002001BFF4F7AF090728BFA0E80C5048BF61
:100340000CC05DF804EB890028BF40F8042B08BFFF
:10035000704748BF20F8022B11F0804F18BF00F8FB
:10036000012B704770477047704770472DE9FF4F6A
:100370000C461E464FF0FF378BB0D2E90001DDF886
:1003800060800A908A46C1F30A5505B93D460021AE
:1003900008464FF00000BAF1000F00F4400005DA03
:1003A00000EB80004FF4400101EA50004FEA905901
:1003B000B9F1010F00DDB9460A9850EA4A000ED0A3
:1003C00044F61050A5F2FF3545432F14B8F1000F45
:1003D0001ED07542291E1EDDC9F100021CE0B8F1D5
:1003E000010F4FF0000001D0302103E0F24305E09F
:1003F0002154401CB042FBDB304600220021215436
:100400000B99C1F80880C1E900200FB0BDE8F08F5A
:10041000BD1B6D1CDEE74A4600DA694206A800F003
:100420005BFA06AB93E8070003AB83E8070050468E
:100430000A9900F03CFB8DE80700A0F500501F383A
:1004400000900398002D0ADD42F21F014A4608443D
:10045000002303A90390684600F0A5FD09E0A0F57C
:1004600000504A461F38002303A90390684600F055
:10047000AFFD8DE807000004000C03D04FF0FF3003
:10048000410800E01046B8F1000F03D000220092AE
:1004900015461EE0751E05D400F098F930326255FD
:1004A0006D1EF9D5B3460122084302D000227F1CFD
:1004B00004E02078302801D100227F1E002A09970D
:1004C00084D01DE0112D07DA00F080F9303262553A
:1004D0006D1C50EA0102F5D1084302D00098C8B162
:1004E0000EE00021681E05E0235C625C6354225428
:1004F000401E491C8142F7DBAB46A81B401E0990F9
:10050000002004F80B000B98099AC0F80880C0E995
:10051000002B7AE711264FF0000857E72DE9F04F3E
:1005200088460446D21D22F0070191B0D1E90001AE
:10053000CDE90A0103F02CFA02460B98C00F01D056
:100540002D2007E02068810701D52B2002E0202123
:1005500001EAC000032A099001D0072A05DB0346FF
:100560004146204600F078F90BE12078800601D55D
:10057000E06900E00620B8F1650F814606D0B8F1C9
:10058000660F18D0B8F1670F70D131E00020B9F1D3
:10059000110F009001DB112301E009F101030AAA08
:1005A00001A90CA8FFF7E2FEDDE90C70002609F1B5
:1005B0000105834647E001204B4600904FF000477D
:1005C0000AAA01A90CA8FFF7D1FEDDE90DB00C992C
:1005D0005D46002610B909F101000D18B9EB0500C0
:1005E00003D4C0F1FF3609F10105A5EB09002BE0AA
:1005F000B9F1010F01DA4FF001090020B9F1110F33
:100600000090484601DD112300E003460AAA01A933
:100610000CA8FFF7ABFEDDE90C704D4600268346C3
:10062000207800070AD4AB4500DA5D4601A8012D09
:1006300004DD411911F8011C302907D04F4502DAB9
:1006400017F1040F04DA012082460FE06D1EEEE779
:10065000002F02DCED1B3E4403E0781CA84200DDC5
:100660007D1CB81B00F1010A4FF0004720780007FD
:1006700003D4AA4501DB4FF0FF3A0021B7F1004F48
:100680000DF143088DF8431024D002202B23002FB6
:1006900001DA7F422D230A21021EA0F1010000DCB5
:1006A0005FB197FBF1FC97FBF1F201FB1C7C174655
:1006B0000CF1300C08F801CDEEE7A8F10100037051
:1006C0002188090501D5452100E06521A0F1010837
:1006D00000F8011C09980FA9A1EB0807FF1D00B144
:1006E0000120411901EBEA70A1693844081A401E43
:1006F000A0612078C00602D42046AFF3008009989C
:1007000028B1D4E901219047206A401C206220785A
:10071000C00622D52046AFF300801EE0002E04DB89
:10072000B34502DD01A8805D00E03020D4E901215D
:100730009047206A401C2062761CAAF101005FEA03
:10074000000A0AD100F03EF8C0680168405CD4E9B4
:1007500001219047206A401C2062281EA5F1010556
:10076000DCDC07E0D4E9012118F8010B9047206A8E
:10077000401C2062381EA7F10107F3DC2046AFF3CE
:100780000080032011B041E601694A1C026108782B
:10079000704700B58FB0CDE90131002105910549C1
:1007A0007944CDE9031011466846FFF72DFD0FB0DF
:1007B00000BD0000E5FFFFFF0A6802F8010B0A60B8
:1007C00070470000004870477C05002030B5B0F14C
:1007D0000A024FEA900E71F100034EEA817EB0EBFF
:1007E0000E0061EB91014FEA101E4EEA017E10EB04
:1007F0000E0041EB11114FEA102E4EEA016E10EB84
:100800000E0041EB11214FEA104E4EEA014E10EB63
:100810000E0041EB1141401841F100014FEAD000B8
:1008200040EA41704FEAD10110EB80054FEA8104A4
:1008300044EA907444EB01046D1944EB0404521B28
:10084000A3414FF0000348BF0A3200D530BD401C21
:1008500041F1000130BD00002DE9F0411F46044682
:1008600003260168072A01F4006004DB08B116A51D
:1008700005E016A503E008B115A500E015A521F0D7
:1008800010002060A069C01EA0610FB1401EA061D1
:100890002046AFF300804FB1D4E90121384690479C
:1008A000206A401C2062C01C206206E0206AFAE731
:1008B000D4E9012115F8010B9047761EF8D22046A5
:1008C000AFF30080BDE8F0814E414E006E616E00D6
:1008D000494E4600696E66002DE9F047814616468E
:1008E0008AB0354878440DC88DE80D003248784408
:1008F000801C03AC0DC884E80D0041F69B30084411
:10090000372190FBF1F290FBF1F5A5F1800501FB99
:1009100012041B3C02D56442012000E00020DFF8F5
:1009200098A080460027FA44AAF1BE0A0EE0E0072C
:100930000AD03246684607EB470101230AEB8101E2
:1009400000F046FB8DE8070064107F1C002CEED100
:10095000194F7F44AE3F19E0E80715D007EB0410AC
:100960000DF1180A90E80E008AE80E00C068F04207
:1009700001D1981908903246012306A903A800F076
:1009800027FB03AB83E807006D10641C002DE3D147
:100990004FF0010332466946B8F1000F03A802D0B8
:1009A00000F001FB01E000F013FBC9E90001C9F808
:1009B00008200AB0BDE8F087005B000000487047DF
:1009C0005C0500207546FFF7F9FFAE460500694655
:1009D000534620F00700854618B020B5FFF7EEFB20
:1009E000BDE820404FF000064FF000074FF0000830
:1009F0004FF0000B21F00701AC46ACE8C009ACE8B1
:100A0000C009ACE8C009ACE8C0098D46704710B514
:100A10000446AFF300802046BDE81040FFF7BABBA4
:100A20004FF0013C50F8042B51F8043B9A4221D17D
:100A3000A2EB0C03934313EACC1317D150F8042B09
:100A400051F8043B9A4215D1A2EB0C03934313EAED
:100A5000CC130BD150F8042B51F8043B9A4209D126
:100A6000A2EB0C03934313EACC13DBD04FF000004E
:100A7000704700BFD01A01BAB1FA81F101F0180134
:100A800022FA01F0CB40C1F12001DBB2C0B2C01AA2
:100A90002CFA01F3D11A914311EAC311E6D1704740
:100AA00001491820ABBEFEE72600020070475FEA4E
:100AB000400C08BF91F0000F4FEA8C234FEAC1228F
:100AC00043EA51514FEA1C5018BF00F5F0404FEA7D
:100AD000300018BF41F000415FEA6C5C00F02980F3
:100AE000BCF1FF3F08BF40F080407047130C06BFC9
:100AF00012044FF0100C4FF0000C130E04BF120242
:100B00000CF1080C130F04BF12010CF1040C930F2D
:100B100004BF92000CF1020CD30F04BF52000CF181
:100B2000010C11464FF00002A0F11F00A0EB0C00D9
:100B3000704711F0004F08BF704731F000413FF49B
:100B4000D5AF0B0C06BF09044FF0100C4FF0000C92
:100B50000B0E04BF09020CF1080C0B0F04BF0901B6
:100B60000CF1040C8B0F04BF89000CF1020CCB0FAD
:100B700004BF49000CF1010CCCF12003A0EB0C00E8
:100B800022FA03F302FA0CF241EA030100F1010038
:100B9000704720F07F4C80EA030023F07F47ACEBE6
:100BA000070303F57C5300F0004003F1FF032DE938
:100BB00080494FEA154B09B44FEA144325EA0B4E1E
:100BC00024EA03480FF2042606EB132749083E786F
:100BD0005FEA320203FB0667C7F5000707FB06F66C
:100BE0004FEA54374FEAD64606F1020607FB066C79
:100BF000CCF1005C4FEA1C472CEA074C07FB06F4DB
:100C00000CFB06F504EB15464FEA961634BF0020A0
:100C10004FF000404FEAD13706FB07FC4FEA1C4C6F
:100C20000CFB0BF7D21B03FB0CF761EB07010CFB72
:100C30000EF7B0EB074072EB17420CFB08F734BF1E
:100C4000A2EB0742B2EB074261EB17414FEA0C44BB
:100C50004FEA910706FB07FC4FEA1C4C0CFB0BF715
:100C6000B0EBC74072EB573203FB0CF734BFA2EB7B
:100C7000C742B2EBC74261EB57310CFB0EF7B0EB4A
:100C8000C70072EB57720CFB08F734BFA2EBC70228
:100C9000B2EBC70261EB5771039F4FEA816141EAF2
:100CA000921104EBCC044FEAD1374FEA826206FB83
:100CB00007FC42EA90124FEA80604FEA1C4C0CFBA2
:100CC0000BF7D21B03FB0CF761EB07010CFB0EF7D4
:100CD000B0EB074072EB17420CFB08F734BFA2EBF6
:100CE0000742B2EB074261EB17414FEA8C554FEADE
:100CF000910704EB9C2406FB07FC4FEA1C4C0CFB01
:100D00000BF7B0EBC74072EB573203FB0CF734BF65
:100D1000A2EBC742B2EBC74261EB57310CFB0EF7B7
:100D2000B0EBC70072EB57720CFB08F734BFA2EBB5
:100D3000C702B2EBC70261EB577115EB4C254FEAC6
:100D4000816141EA92114FEA82624FEAD13742EA69
:100D5000901206FB07FC44F100044FEA80604FEA62
:100D60001C4C0CFB0BF7D21B03FB0CF761EB0701D0
:100D70000CFB0EF7B0EB074072EB17420CFB08F7C9
:100D800034BFA2EB0742B2EB074261EB174115EB10
:100D90001C154FEA813141EA92414FEA823242EA20
:100DA00090424FEA80304FEA0C7644F1000448EA62
:100DB00003434EEA0B484FF0000EB2EB080C71EB08
:100DC000030724BF624639464EEB0E0E4FF0000B70
:100DD0000018524149414BEB0B0BB2EB080C71EB85
:100DE00003077BF1000B24BF624639464EEB0E0E23
:100DF0004FF0000B0018524149414BEB0B0BB2EB8B
:100E0000080C71EB03077BF1000B24BF62463946E7
:100E10004EEB0E0E51EA020718BF46F0010616EB24
:100E20000E7655F1000254F1000103D5BDE88901A9
:100E3000BDE80088BDE88901BDE80048B619524107
:100E400041EB0101A3F10103704780807F7E7D7C2F
:100E50007B7A7978777676757473727171706F6E4C
:100E60006E6D6C6C6B6A6A696868676666656464F7
:100E7000636362616160605F5F5E5E5D5D5C5C5B81
:100E80005B5A5A59595858575756565555555454F0
:100E9000535352525251515050504F4F4F4E4E4D4E
:100EA0004D4D4C4C4C4B4B4B4A4A4A49494948489A
:100EB00048474747474646464545454444444443DA
:100EC00043434342424242414141002B9C4630D47D
:100ED00077002BD01CB54FEA370703B44FF0100052
:100EE0004FF01001BAF1000F06D0BCF1000FDCBFCB
:100EF00040F0080040F008014FF000000FBCBDE8D2
:100F000010400BF1010BBBF1010F08BF5FEA17079F
:100F100022BF12F1010211F101014FF0004143F132
:100F2000000300F0004043EA00007047F9D357087F
:100F3000D0E746EA064613F1400F4FEA16461FDD9A
:100F400013F1200FDFBF16430A46002120335B4216
:100F5000BED0C3F1200746EA064602FA07F74FEA79
:100F6000164646EA0706C3F1200722FA03F201FA01
:100F700007F721FA03F14FF0000342EA0702A7E75F
:100F800046EA020646EA06464FEA164646EA0106E1
:100F9000BCBF46EA0646360C4FF000034FF0000295
:100FA0004FF0000194E72DE9804C9A46934670B4C7
:100FB00091E8380007C831EA400C48BF34EA430CD6
:100FC00003D5FFF7E6FDFFF780FFF0BCBDE8008C1E
:100FD0002DE9804C9A46934670B491E8380007C8D2
:100FE00010F0804F08BF13F0804F03D100F005F8D8
:100FF000FFF76BFFF0BCBDE8008C20F07F4780EA74
:10100000030023F07F4C07EB0C03A3F57C5300F0A7
:101010000040A3F1FE0392F0000F00F0B38095F0C2
:10102000000F00F077802DE901494FEA11404FEAA7
:10103000144621EA004800FB06FC24EA064708FBA8
:1010400006F607FB08F800FB07F718EB06484CEB21
:10105000164C4FEA124B18EB07484FEA15464CEB7B
:10106000174022EA0B4E0BFB06FC25EA06470EFB57
:1010700006F607FB0EFE0BFB07F71EEB064E4CEBCE
:10108000164C4FF000061EEB074E4CEB174B18EBBF
:101090000B0840F1000018EB0E0B58EB000840F174
:1010A00000008F1A4FF000013CBFC943661B14BFFC
:1010B000B5EB040C00213CBFC943F61B4FEA1744B3
:1010C0004EEA8E0E27EA04454FEA1C4704FB0762EE
:1010D0002CEA074C05FB07F70CFB05F604FB0CFCA0
:1010E00016EB074642EB174216EB0C4642EB1C424E
:1010F0001BEB060658EB0202414146EA9E0601D56B
:10110000BDE80189B619524141EB0101A3F1010388
:10111000BDE801894FEA14454FEA114724EA054624
:1011200021EA074C05FB07F406FB07F70CFB06F169
:1011300005FB0CFC11EB074144EB17444FEA124747
:1011400011EB0C4144EB1C4422EA074C05FB07F26F
:1011500006FB07F70CFB06F605FB0CFC16EB074637
:1011600042EB174216EB0C4642EB1C456A1854F151
:10117000000148BF7047B619524141EB0101A3F18C
:101180000103704795F0000F37D04FEA11424FEA44
:10119000144721EA024624EA074C02FB07F106FB4A
:1011A00007F70CFB06F402FB0CFC14EB074441EBC5
:1011B00017414FEA154714EB0C4441EB1C4125EA5B
:1011C000074C02FB07F506FB07F70CFB06F602FBD4
:1011D0000CFC16EB074645EB174516EB0C4645EBAA
:1011E0001C42121951F1000148BF7047B619524113
:1011F00041EB0101A3F1010370474FEA14454FEAA7
:10120000114724EA054621EA074C05FB07F106FBD6
:1012100007F70CFB06F24FF0000605FB0CFC12EB87
:10122000074241EB174112EB0C4251EB1C4148BF06
:101230007047921841EB0101A3F1010370470000D0
:1012400070B5044600688168C943C90717D1816831
:1012500021F00101816000F04FFD05460AE000BF6A
:1012600000F04AFD401B022804D920688068C04372
:10127000C00706D020688068C043C007F0D00020B7
:1012800070BDA06A40F01000A062E06A40F001006A
:10129000E062012070BD0000F8B50026044600960B
:1012A00000688168C943C9072DD0816841F00101F8
:1012B0008160164816490068B0FBF1F000E0401E5E
:1012C00000900028FBD100F017FD054616E000BF96
:1012D00000F012FD401B022810D920688068C0432E
:1012E000C0070BD0A06A40F01000A062E06A40F096
:1012F0000100E06284F824600120F8BD2068806865
:10130000C043C007E4D10020F8BD00000C0000205D
:1013100040420F0010B500240C4800F067FB642128
:101320000A4800F0C5FA60B9084800F003FA80B234
:1013300002F0A4FF064902F0C7FE064902F0B2FF20
:101340000446024800F0B2FB204610BD1000002009
:1013500000F07F450000C8423EB501208DF8040032
:1013600010208DF808006424012301AA46210948B1
:10137000009400F0B3FE0A2000F0B2FB012302AAA1
:1013800046210448009400F0A9FEB42000F0A8FB18
:101390003EBD0000400000203EB510208DF8080042
:1013A0006424012302AA46211048009400F096FE0E
:1013B0000F4D50B9B42000F093FB022301AA47213E
:1013C0000A48009400F062FD08B128463EBD9DF831
:1013D00004009DF8051001EB002080B202F04EFFE2
:1013E00003B00449BDE8304002F06EBE400000206A
:1013F000000080BF9A99993FFEE7000070B5002475
:1014000000F0C0F8124D04E0641CE4B2012002F0C8
:10141000EBFA1021284600F065FC10B1642CF3D3E0
:101420000FE0642C0DD2002404E0641CE4B201201F
:1014300002F0DAFA1021284600F054FC18B1F02C22
:1014400004D3012070BDF02CEFD3FAE7002070BD6B
:10145000000C014010B500F0A5F80122102103484E
:1014600000F045FCBDE8104000F06CB8000C0140F5
:1014700070B5002400F096F80B4D0022102128468C
:1014800000F035FC0A2002F0AFFA00F07BF81021E2
:10149000284600F027FC012800D101242D2002F06D
:1014A000A3FA204670BD0000000C014070B5002476
:1014B00025466408FFF7DCFF08B144F080046D1C8A
:1014C000EDB2082DF5D3204670BD000070B51A4C62
:1014D00000F038F8FFF792FF60BBCC2000F09AF8DC
:1014E000442000F097F84FF4487000F0F9FA00F04B
:1014F00029F8FFF783FFE8B9CC2000F08BF8BE2075
:1015000000F088F8FFF7D2FF0546FFF7CFFF45EA66
:10151000002000B22517002801DAC043401C02F069
:1015200095FE294602F0BEFF0449884202D80449CC
:10153000884200DD204670BD9AF979C400005CC283
:101540000000FA4210B500F02DF80D4C00221021D9
:10155000204600F0CCFB40F2EE2002F045FA0122DA
:101560001021204600F0C3FB0F2002F03DFA00F0EE
:1015700009F82046BDE81040102100F0B3BB000080
:10158000000C01401FB50020019003901020009036
:10159000012002906946024800F0B4FA1FBD000025
:1015A000000C01401FB51020009001200190029016
:1015B000022003906946024800F0A4FA1FBD000013
:1015C000000C014070B50546FFF7ECFF104C4FF0E2
:1015D00000024FF0100120465DB100F088FB0920A9
:1015E00002F002FA01221021204600F080FB372091
:1015F0000AE000F07CFB462002F0F6F901221021FF
:10160000204600F074FB0220BDE8704002F0ECB907
:10161000000C014070B505465FF0000405F00100C4
:10162000FFF7D0FF641C6D08E4B2082CF6D370BD40
:10163000704772B6FEE70000F8B50024009490F8F9
:1016400024202546012A12D0012280F824204A684D
:101650001F23072A0DD20668776B521E02EB820207
:1016600093409F430B6893401F43776319E0022028
:10167000F8BD06680D2A0AD2376BD21F02EB820230
:1016800093409F430B6893401F43376309E0F76A19
:101690000D3A02EB820293409F430B6893401F4335
:1016A000F7620A68072306680A2A0AD3F7680A3A23
:1016B00002EB420293409F438B6893401F43F760C5
:1016C00008E0376902EB420293409F438B689340E6
:1016D0001F4337610A68102A01D0112A20D1124B0A
:1016E00002689A4217D193681B0219D4936843F495
:1016F000000393600968102912D10C490C4A09684B
:10170000B1FBF2F101EB8101490000E0491E0091BB
:101710000029FBD104E0816A41F0200181620124AB
:1017200080F824502046F8BD002401400C00002021
:1017300040420F000068C06C704700002DE9F04186
:101740004FF0000704003D467ED0A06A002628B96D
:10175000E66284F82460204600F07EF82046FFF719
:101760006FFDA16AC90600D420B1A06A40F0100044
:10177000A06269E0A16A21F4885141F00201A162EE
:101780006268E169237B0A4347EA43010A43A1688F
:101790004FF48077B94209D0012907D05FF00001EA
:1017A00094F814C0BCF1010F02D00AE03946F7E703
:1017B000F3B1A36A43F02003A362E36A43F0010399
:1017C000E3622368D3F804C02CF4694C4CEA010CA2
:1017D000C3F804C021688B68DFF870C003EA0C030B
:1017E00013438B60A168B9420BD0012909D00CE0EA
:1017F000DFF85CC0A3690CEB43330B4343F4006197
:10180000DFE7218A0D05A5F580152168CB6A23F451
:1018100070032B43CB62216889680E4B19409142BB
:1018200008D1E662A16A21F0020141F00101A16242
:10183000BDE8F081A06A20F0020040F01000A06234
:10184000E06A40F00100E0620120F1E7FDF7E1FF0E
:1018500000E0FFFFFE0E1FFF00B585B000210091E4
:1018600001910291039100680E49884218D10E48F7
:10187000816941F400718161816901F40071049111
:10188000816941F0080181618069694600F00800C2
:1018900004900220009003200190044800F032F9E7
:1018A00005B000BD0024014000100240000C0140C2
:1018B0002DE9F84300270D460446009700F01CFA76
:1018C000804620688168C90508D5A06A40F02000DC
:1018D000A06284F824700120BDE8F8834168C9053E
:1018E00003D4C06A10F4700F2AD0022000F052FD19
:1018F0003B490968B1FBF0F62068036939490B429E
:101900004FEA61014FEAA1121FD1C3684FEA611C7F
:1019100013EA0C0F19D103690B4225D1C06810429C
:1019200022D1142023E0681C0AD02DB100F0E4F984
:10193000A0EB0800A84203D920680068800725D5DD
:10194000206800688007EED52DE003690B4202D1C4
:10195000C168114206D0026923490A4206D1C06813
:10196000084203D1542002E0292000E0FC20464335
:10197000009816E0681C11D02DB100F0BDF9A0EB65
:101980000800A8420AD90098B04207D2A06A40F0E5
:101990000400A06284F8247003209DE70098401C96
:1019A0000090B042E6D321686FF012000860A06A90
:1019B00040F40070A06220688068C0F342400728AD
:1019C0000CD1207B50B9A06A20F48070A062A06A7C
:1019D000C00403D4A06A40F00100A06200207BE7AD
:1019E0000C000020244992244992240070B504463A
:1019F00090F8240001280DD0012084F8240020460E
:101A0000FFF74AFC02004FF0000005D084F82400E4
:101A1000104670BD022070BDA16A40F201239943B7
:101A200041F48071A1621F4D23681F49AB4218D158
:101A30000E6816F4702F14D0A66A46F48016A662BB
:101A40000E68760505D5A66A26F4005646F480563B
:101A5000A662A66AF6040AD5E66A26F00606E662DB
:101A600006E0A66A26F48016A6625E68E9E7E062F0
:101A700084F824006FF00200186020688368C3F3C4
:101A80004243072B05D1A84208D1096811F4702FF1
:101A900004D0816841F480118160B9E7816841F424
:101AA000A001F9E7002801400424014010B50446D4
:101AB00090F82400012807D0012084F82400204653
:101AC000FFF7BEFB10B107E0022010BDA16A21F4B0
:101AD000885141F00101A162002184F8241010BD59
:101AE00070B5044600F008F90546601C02D00448B1
:101AF0000078044400F000F9401BA042FAD370BD06
:101B0000000000202DE9F84FDFF8B8910024A9F17A
:101B1000040B23460F2709F1040AABF1040EC9E0B8
:101B20000125A5402A40AA427DD1674ED1F804C0C4
:101B3000ACEB0608B44532D014DCBCF1030F3AD04C
:101B400009DCBCF1000F2AD0BCF1010F1CD0BCF1A4
:101B5000020F31D11DE0BCF1110F17D0BCF1120FF3
:101B60002AD119E0B8F5881F19D006DCB8F5803FF6
:101B700015D0B8F5801F1FD111E0B8F5001F0ED0A9
:101B8000B8F5041F18D10AE0CB6815E0CB681B1D1F
:101B900012E0CB6808330FE0CB680C330CE08B68A5
:101BA0002BB1012B4FF0080303D0456104E004235F
:101BB00002E0056100E00023FF2A01D8064601E0AB
:101BC00000F104064FEA840501D9A5F12005D6F8F5
:101BD000008007FA05FC28EA0C0803FA05F548EA34
:101BE0000508C6F800804D68ED0062D5374DAE6936
:101BF00046F00106AE61AD6924F0030605F001056B
:101C00000095334D06EB050CDCF80850A607360F9F
:101C100007FA06F825EA0805DFF8B880404503D141
:101C20004FF0000817E044E0DFF8AC80404502D1F7
:101C30004FF001080FE0DFF8A480404502D14FF0DB
:101C4000020808E0DFF89880404502D14FF0030811
:101C500001E04FF0040808FA06F848EA0508CCF855
:101C600008804D68D9F80060ED024D4601D5164355
:101C700000E096432E604D68DAF80060AD025546EC
:101C800001D5164300E096432E604D68DBF80060F6
:101C9000AD035D4601D5164300E096432E604D68C6
:101CA000DEF80060ED03754601D5164300E096436B
:101CB0002E60641C0D682A46E5407FF431AFBDE814
:101CC000F88F0000080401400000111000100240CD
:101CD0000000014000080140000C014000100140DC
:101CE000001401408068084000D0012070470AB10C
:101CF000016170470904FBE70148806870470000F4
:101D00000000002070B5040025D094F83D000025A7
:101D100020B984F83C50204600F076FA242084F85C
:101D20003D002068016821F0010101602068016820
:101D300041F4004101602068016821F40041016024
:101D400000F08CFC4D4A6168914201D84C4900E09A
:101D50004C49884201D2012070BD4B492368B0FB39
:101D6000F1F15E6826F03F060E435E6063689342C1
:101D700006D94FF4967359434FF47A73B1FBF3F1DC
:101D80002368491C1E6A26F03F06314319626168C8
:101D9000914210D84900401EB0FBF1F2521CC2F330
:101DA0000B02042A01D2042022E0B0FBF1F0401C17
:101DB000C0F30B001CE0A268F2B301EBC10303EB1C
:101DC0000116431EB3FBF6F35B1C43F480431B0573
:101DD00049D092B301EBC10202EB0111401EB0FBEE
:101DE000F1F0401CC0F30B0040F4804040F4004090
:101DF0002168CA694CF6FF739A431043C861D4E95D
:101E0000071001432068026822F0C00211430160FC
:101E1000D4E9030101432068826848F2FF339A4302
:101E200011438160D4E9050108432168CA6822F0A2
:101E3000FF021043C86001E00EE016E02068016870
:101E400041F0010101602564202084F83D002563F4
:101E500084F83E50002070BD01EB4106431EB3FBE9
:101E6000F6F35B1CB3E70120C2E701EB4101401E22
:101E7000B0FBF1F0401CC0F30B00B7E7A0860100F7
:101E800080841E0000093D0040420F002DE9F84FFC
:101E90000025DDF82890984617468A4604460095A6
:101EA000FFF72AFF064694F83D0020287AD119232F
:101EB000012286492046009601F026F90028F5D136
:101EC00094F83C0001286DD0012084F83C00206883
:101ED0000168C90703D1016841F001010160206870
:101EE000016821F400610160222084F83D00102087
:101EF00084F83E0025646762A4F82A80608D2085FE
:101F00007348E06233464A465146204601F00CF8D9
:101F100000287CD1208DDFF8BC81202768B1012802
:101F200014D00228206801681ED041F4806101604D
:101F30002068416980690090BBE02068416981693F
:101F40000091016841F400710160B2E0206801680D
:101F500021F48061016072B6206841698169009155
:101F6000016841F400710AE041F40061016072B659
:101F70002068416981690091016821F480610160F4
:101F800062B696E0032865D801280CD002284B469B
:101F90004FF000024146204600960BD001F0B4F805
:101FA000A8BB0CE090E032464946204601F052F9C9
:101FB00068BB71E001F0A8F848BB72B633E0206856
:101FC000016821F48061016072B620680069616A6D
:101FD0000870606A401C6062208D401E2085608D04
:101FE000401E60853C4846F2A8110068B0FBF1F045
:101FF000C0EBC00000EB80000090401E009007D0B6
:1020000020684069C04340070DD50098F5E727E0F8
:1020100044F8305F6773A573206940F020002061A9
:1020200062B625731CE02068016841F4007101600C
:1020300020680069616A0870606A401C6062218DD6
:10204000491E2185618D491E618562B62168096935
:10205000017025E032464946204601F0FBF810B1F8
:102060000120BDE8F88F20680069616A0870606A25
:10207000401C6062208D401E81B22185608D401E13
:10208000608520684269D243520712D4032903D1E4
:10209000016821F48061016020680069616A08704C
:1020A000606A401C6062208D401E2085608D401E4D
:1020B0006085208D00287FF465AF84F83D7084F83A
:1020C0003E5084F83C50CCE70220CAE702001000E2
:1020D0000000FFFF040001000C0000202DE9F84F74
:1020E0001F4690468A460446DDF82890FFF704FE16
:1020F000054694F83D0020287FD11923012240494C
:102100002046009501F000F8002876D194F83C00B4
:10211000012872D0012084F83C0020680168C907BA
:1021200003D1016841F0010101602068016821F4D8
:1021300000610160212084F83D00102084F83E00F9
:1021400000262664C4F824806785608D20852D488C
:10215000E0622B464A465146204600F05BFF90B9AC
:10216000206841698069009036E02A464946204649
:1021700001F0A8F850B1206C042804D1206801684F
:1021800041F4007101600120BDE8F88F606A2168A8
:1021900000780861606A401C6062618D491E61853B
:1021A000218D491E89B2218522685369DB435B0773
:1021B0000BD451B100781061606A401C6062608D80
:1021C000401E6085208D401E20852A4649462046B7
:1021D00000F06EFF0028CED1208D0028C5D154F824
:1021E0003D0B016841F400710160202004F81E09D4
:1021F000E67766770020C7E7FFE70220C4E7000024
:10220000020010000000FFFF10B586B00021009111
:1022100001910291039100680F4988421AD10F4C35
:10222000A06940F00800A061A069694600F00800BC
:102230000490C020009012200190032003900848D1
:10224000FFF760FCE06940F40010E061E06900F431
:102250000010049006B010BD005400400010024071
:10226000000C014002488168027811448160704787
:1022700000000020074810B5016841F0100101601E
:10228000032000F075F80F2000F006F800F024F8A5
:10229000002010BD0020024070B50D4D04464FF4E3
:1022A0007A712878B1FBF0F00A490968B1FBF0F0C7
:1022B00000F0AAFB48B9102C07D200222146501E7C
:1022C00000F036F800206C6070BD012070BD000089
:1022D000000000200C0000200C4808B5816941F086
:1022E00001018161816901F001010091C16941F041
:1022F0008051C161C06900F080500090044841687D
:1023000021F0E06141F00071416008BD0010024021
:1023100000000140002809DB00F01F02012191406C
:102320004009800000F1E020C0F800117047000073
:10233000F0B40E4B1B680C46C3F30223C3F1070530
:10234000042D00D90425191D072901D2002300E01E
:10235000DB1E012606FA05F1491E214099409E40E8
:10236000761E16403143F0BC01F026BB0CED00E0B8
:10237000064900F0070208684FF6FF03184040EADC
:102380000220034A10430860704700000CED00E093
:102390000000FA0510B501460020234C012922D087
:1023A000022939D010291DD161682268D20119D5BE
:1023B0001E48C1F38342C903805C0AD561681B4A89
:1023C000C1F34041921E515C194AB2FBF1F14843FE
:1023D00001E0184948436168490203D440000321E1
:1023E000B0FBF1F010BD226AC2F30121012903D133
:1023F000920701D5C80310BD022905D1626A920770
:1024000002D549F6404010BD0329FCD1216889035B
:10241000F9D54FF2244010BD00F030F96168C1F3E6
:102420008131491C4900DBE70010024034450008B7
:1024300000127A0000093D002DE9F84305460078B6
:10244000354CC00754D0E0690026C00008D4E069CC
:1024500040F08050E061E069012600F0805000907B
:102460002E480168C90512D40168804641F4807184
:102470000160FFF741FC074605E000BFFFF73CFCA9
:10248000C01B642823D8D8F80000C005F6D5206A00
:1024900010F4407021D0A98801F4407181421CD011
:1024A000206A1F49012220F440700A6000220A605D
:1024B0002062C00711D0FFF71FFC074641F28838A1
:1024C00008E000BFFFF718FCC11B414502D90320FB
:1024D000BDE8F883206A8007F4D5206A696820F493
:1024E0004070084320621EB1E06920F08050E06136
:1024F0002878800705D56068A96820F44040084323
:1025000060602878C00605D56068E96820F480001E
:10251000084360600020DBE70010024000700040CC
:10252000400442422DE9F0470F46050061D0434E7A
:10253000306800F00700B84209D2306820F0070088
:1025400038433060306800F00700B84251D1286845
:102550003B4C810712D5400703D5606840F4E0602A
:1025600060602878000703D5606840F460506060C0
:102570006068A96820F0F000084360602878C00710
:1025800028D06868012810D02168022810D0890757
:1025900000292EDA616821F0030101436160FFF731
:1025A000ABFB804641F288390DE021688903EFE7F3
:1025B0008901EDE7FFF7A0FBA0EB0801494502D92F
:1025C0000320BDE8F0876068696800F00C00B0EB9C
:1025D000810FEFD1306800F00700B8420BD93068A6
:1025E00020F0070038433060306800F00700B84240
:1025F00001D00120E5E72878400705D56068E96843
:1026000020F4E060084360602878000706D5606821
:10261000296920F4605040EAC100606000F03EF893
:102620006168084AC1F30311515CC840064908605B
:1026300006480068FFF730FE0020C2E70020024095
:1026400000100240444500080C0000200400002057
:1026500001480068704700000C000020044805494C
:1026600000684968044AC1F30221515CC8407047C0
:102670000C000020001002405445000804480549A1
:1026800000684968044AC1F3C221515CC8407047E0
:102690000C00002000100240544500080E4A51680A
:1026A0000E4801F00C03042B11D0082B0FD10C485D
:1026B000C1F38343C903C05C0AD55168084AC1F31A
:1026C0004041921E515C054A5043B0FBF1F0704707
:1026D00004494843704700000010024000127A008D
:1026E0002245000800093D002DE9F84F040070D094
:1026F0002078C04DC00749D06868C0F38100012828
:1027000007D06868C0F38100022809D16868C00357
:1027100006D52868800339D560680028E7D035E001
:102720006068B0F5803F0BD010B1B0F5A02F11D08C
:10273000286820F480302860286820F4802002E097
:10274000286840F480302860606890B1FFF7D4FAC0
:1027500006460AE0286840F480202860F0E700BFC1
:10276000FFF7CAFA801B642873D828688003F7D55E
:102770000CE0FFF7C1FA064605E000BFFFF7BCFA20
:10278000801B6428F0D828688003F7D420789A4EFC
:1027900080074FF001094FF0000839D5686810F044
:1027A0000C0F07D06868C0F38100022809D168685F
:1027B000C00306D42868800714D52069012808D1F1
:1027C00010E02069B0B1C6F80090FFF795FA07460F
:1027D00005E00AE1FFF790FAC01B0228C4D8286878
:1027E0008007F7D52868616920F0F80040EAC10049
:1027F00028600DE0C6F80080FFF77EFA074604E087
:10280000FFF77AFAC01B022823D828688007F7D47C
:10281000207800072CD57948A169D9B1C0F800907B
:10282000FFF76AFA074604E0FFF766FAC01B0228C2
:102830000FD8686A8007F7D571484FF4FA510068DD
:10284000B0FBF1F0009000BF0098411E0091FAD259
:102850000EE080E0C0F80080FFF74EFA074604E083
:10286000FFF74AFAC01B022875D8686A8007F7D4B8
:102870002078400760D5E8690027C00008D4E869DF
:1028800040F08050E861E869012700F08050009036
:102890005C480168C90513D40168834641F480711E
:1028A0000160FFF729FA824606E000BFFFF724FA2D
:1028B000A0EB0A0064284ED8DBF80000C005F5D56F
:1028C000E06801280AD008B1052813D0286A20F052
:1028D00001002862286A20F0040002E0286A40F023
:1028E00001002862E06841F2883B98B1FFF704FAE2
:1028F00082460BE0286A40F004002862EEE700BF41
:10290000FFF7FAF9A0EB0A0159455AD8286A80075F
:10291000F6D50CE0FFF7F0F9824605E0FFF7ECF999
:10292000A0EB0A0159454CD8286A8007F6D41FB19C
:10293000E86920F08050E861E06988B36968C1F314
:102940008101022944D00228C6F8608004D0FFF734
:10295000D3F9044638E034E0FFF7CEF9074604E047
:10296000FFF7CAF9C01B02282BD828688001F7D4CA
:10297000206AB0F5803F05D16868A16820F4003076
:1029800008436860D4E908010843696821F47411B8
:1029900008436860C6F86090FFF7AEF9044606E0A9
:1029A00025E000BFFFF7A8F9001B022809D8286816
:1029B0008001F7D51BE000BFFFF79EF9001B02283E
:1029C00002D90320BDE8F88F28688001F4D40EE016
:1029D0000128F7D06868226A00F48031914204D15E
:1029E000616A00F47010884201D00120EAE70020FB
:1029F000E8E700000010024000004242800442422A
:102A00000C0000200070004010B5401EB0F1807F27
:102A100001D3012010BD4FF0E02460610F21601749
:102A200000F0CAFF0020A06107202061002010BD37
:102A30007047704770B590F83C20012A26D00124D9
:102A400080F83C40022280F83D2003685A689D6867
:102A500022F070060A6832435A600D4B02689A42AF
:102A600008D0B2F1804F05D00A4B9A4202D00A4BEF
:102A70009A4204D1496825F080031943916080F897
:102A80003D40002180F83C10084670BD022070BD1A
:102A9000002C0140000400400008004090F83D1068
:102AA000012901D001207047022180F83D10006803
:102AB0000B49884208D0B0F1804F05D009498842BF
:102AC00002D00949884204D1816801F00701062932
:102AD00003D0016841F0010101600020704700004F
:102AE000002C0140000400400008004001680A6A10
:102AF00041F211131A4207D10A6A9B101A4203D1FC
:102B00000A6822F001020A60012180F83D100020CD
:102B1000704770472DE9F041054690F83C000026CB
:102B20000C46012810D0012085F83C0072B1042A1F
:102B30001CD0082A2CD00C2A50D00126002085F861
:102B40003C003046BDE8F0810220FBE7D4E90012EA
:102B5000E368286800F0D4FE2868816921F00C0140
:102B6000816128688169A26811430FE0D4E90012ED
:102B7000E368286800F0F0FE2868816921F440616C
:102B8000816128688169A26841EA02218161D5E7F3
:102B90002868D4E9002C277B036A016A21F480713C
:102BA0000162C16923F4007321F0030141EA0C01C1
:102BB00021F0F00C39074FF400774CEA116107EA75
:102BC00002221A43C16102622868C16921F00C0126
:102BD000C1612868C169A26811432BE02868D4E963
:102BE0000021E768036AD0F820C02CF4805CC0F8AC
:102BF00020C0D0F81CC023F400532CF4407C4CEAD5
:102C0000012121F4704C4FF6FF7101EA07314FF4B6
:102C1000005741EA0C0107EA02321A43C16102621D
:102C20002868C16921F44061C1612868C169A2684E
:102C300041EA0221C16181E710B5040003D094F894
:102C40003D0010B107E0012010BD002084F83C00D9
:102C5000204600F01FF8022084F83D00211D206866
:102C600000F012FE012084F8460084F83E0084F84B
:102C70003F0084F8400084F8410084F8420084F862
:102C8000430084F8440084F8450084F83D000020A7
:102C900010BD000000B585B00021009101910291A6
:102CA00003910068B0F1804F27D11548C16941F008
:102CB0000101C161C16901F001010491816941F023
:102CC000080181618069694600F0080004900820CD
:102CD00000900C48FEF716FF0B48416821F4407144
:102CE00041F0E06141F480714160002211461C20F6
:102CF000FFF71EFB1C20FFF70DFB05B000BD000019
:102D000000100240000C0140000001402DE9F0419C
:102D100004460068C66805694FF00007A90713D587
:102D2000B10711D5F91E0161012020772068806963
:102D30008007204602D0FFF7ECFE04E000F07EF8AA
:102D4000204600F07CF82777680716D5700714D561
:102D500021686FF0040008610220207720688069F4
:102D600010F4407F204602D0FFF7D3FE04E000F0CD
:102D700065F8204600F063F82777280715D5300757
:102D800013D521686FF008000861042020772068BF
:102D9000C0698007204602D0FFF7BBFE04E000F0C8
:102DA0004DF8204600F04BF82777E80616D5F006D8
:102DB00014D521686FF01000086108202077206882
:102DC000C06910F4407F204602D0FFF7A2FE04E065
:102DD00000F034F8204600F032F82777E80708D0F2
:102DE000F00706D021686FF001000861204600F06E
:102DF00027F8280608D5300606D521686FF0800030
:102E000008612046FFF714FE680608D5700606D54F
:102E100021686FF040000861204600F012F8A80613
:102E20000AD5B00608D521686FF020000861204659
:102E3000BDE8F041FFF7FDBDBDE8F0817047704788
:102E4000704770472DE9F0410122254C15022946B3
:102E50002046FEF74CFF0A2000F0C6FD002229465E
:102E60002046FEF744FF00251E4E1F4F02E06D1C5A
:102E7000BD4231D808212046FEF734FF0028F6D0A5
:102E80001A4F0020396848623846FFF707FE0025D0
:102E9000DFF85C8006E06D1C454503D91348FFF759
:102EA00025FE19E008212046FEF71CFF0128F2D07C
:102EB0003868446A0D48FFF719FE204601F0DEF934
:102EC0000C4901F0EFF94FF0FF3101F0EBFAA0F1FE
:102ED0008041B1F1727F00D93046BDE8F081000039
:102EE000000C0140000080BF40420F009400002011
:102EF00080969800287E0C3DFEE701684A69D2431F
:102F000052050FD46FF480624A61002140F8301FEF
:102F1000202242738173026942F00402026101734C
:102F200001207047002070472DE9F84F0446C06A21
:102F30001E4693460D4621680A6842F480620A6084
:102F4000082807D0012805D010F5803F02D0206B5B
:102F5000112804D12068016841F4807101604FF0AC
:102F600001195B46002249462046009600F0CCF845
:102F70004FF4007840B120680068C00501D5C4F85E
:102F800040800320BDE8F88F2069DFF884A0B0F509
:102F9000804F0FD00620216800EAD51747F0F000D7
:102FA000086133465A460AF10601204600F0F4F85B
:102FB00058BB03E0E8B240F001001CE02168E8B231
:102FC000086133465A465146204600F0E5F8E0B91C
:102FD0002068416981690091016841F48071016054
:102FE0005B46002249462046009600F08DF80028F6
:102FF000C1D147F0F1002168086133465A46514675
:10300000204600F0C9F80028BCD00120BAE7000033
:1030100002000100F8B50446C06A1E460D46174678
:10302000082807D0012805D010F5803F02D0206B7A
:10303000122804D12068016841F4807101601346B0
:1030400000224FF001112046009600F05DF840B1DB
:1030500020680068C00502D54FF40070206403208A
:10306000F8BD2069B0F5804F0ED00620216800EA37
:10307000D51040F0F000086133463A460B4920462F
:1030800000F08AF878B902E005F0FE0000E0E8B24E
:1030900021680861054933463A46891F204600F0F9
:1030A0007BF80028DCD00120F8BD000008000100FA
:1030B00070B516460D4604461EE02046FFF71DFF7C
:1030C00008B1012070BD681C16D0FEF715FE801BEC
:1030D000A84200D885B920684069C04340070BD595
:1030E000002044F8300F20216173A073216941F062
:1030F000200121612073E4E720684069C043400754
:10310000DBD4002070BD00002DE9F047984617463B
:103110000D460446C1F30746DDF820902AE000BFC3
:10312000B8F1FF3F26D0FEF7E7FDA0EB09014145CE
:1031300002D8B8F1000F1DD12068012E16D0806989
:1031400025EA00000004000C12D00020B84211D182
:10315000002044F8300F20216173A073216941F0F1
:103160002001216120730120BDE8F0874069E7E775
:103170000120EBE72068012E0AD0806925EA0000D3
:103180000004000C06D00020B842C9D00020EBE7B4
:103190004069F3E70120F7E72DE9F0479846164626
:1031A0000D4604464FF000094FF0200AC1F30747CF
:1031B00023E020684069C043400515D420680168B9
:1031C00041F40071016021686FF480604861C4F8C7
:1031D000309084F83DA084F83E90216C41F00401C9
:1031E000216484F83C9021E0701C06D0FEF784FD39
:1031F000A0EB0800B04203D816B1012F1FD021E088
:103200002068012F15D0806925EA00000004000C19
:1032100018D000BF44F8309F84F80DA084F80E90B9
:10322000216941F02001216184F80C900120BDE862
:10323000F087406925EA00000004000CEAD120680C
:10324000406901E02068806925EA00000004000C64
:10325000AFD1ECE72DE9F041002590460E4604463B
:10326000202728E04069C043C0060CD454F8301B26
:103270006FF01000486144F810596777A577206A0D
:103280002062257714E0FEF737FDA0EB0800B0427E
:1032900000D886B920684069C04340060BD544F881
:1032A000305F6773A573206940F0200020612573AB
:1032B0000120BDE8F08120684169C9434906D1D4A5
:1032C0000020F6E770B516460D4604461EE020467F
:1032D000FFF713FE08B1012070BD681C16D0FEF781
:1032E0000BFD801BA84200D885B920684069C04307
:1032F00000060BD5002044F8300F20216173A07325
:10330000216941F0200121612073E4E720684069D0
:10331000C0430006DBD4002070BD00003EB5002491
:1033200011480094019402940E4984600160047372
:103330000475012505614FF460214460C161FEF709
:10334000FDF908B1FEF775F90920CDE900056946D8
:1033500002940548FEF770F9002801D0FEF769F9DC
:103360003EBD00000024014010000020F0B585B0F3
:10337000002000900190029003902048816941F064
:1033800020018161816901F020010491816941F08E
:1033900004018161816901F004010491816941F0B6
:1033A000080181618069164E00F008000490012236
:1033B000F0213046FEF79BFC124F012211213846C6
:1033C000FEF795FC0022B1153846FEF790FC01246B
:1033D000F020CDE90004032569463046CDE90245D9
:1033E000FEF790FB40F21110CDE900046946384623
:1033F000CDE90245FEF786FB05B0F0BD00100240A6
:1034000000080140000C01400D4810B50B49016057
:103410000C49416000214FF480428160C0E90312F1
:1034200041618161C1610162FEF76CFC002803D03B
:10343000BDE81040FEF7FDB810BD0000005400408C
:1034400040000020A086010010B586B00024184876
:10345000059404940094019402944FF080410394E5
:1034600001604721C0E901144FF6FF71C0E9031460
:1034700080218161FFF7E0FB08B1FEF7DAF80494E0
:1034800004A90B480594FFF7D5FA08B1FEF7D1F867
:103490000120CDE9004002940422694604480394C7
:1034A000FFF738FB002801D0FEF7C3F806B010BDC7
:1034B00094000020FEE7FEE730B40021084B0A46E6
:1034C0005FF0000003EBC004401CC0B262548028CF
:1034D000F8D3491CC9B20829F2D330BC00F09EB819
:1034E000DC00002030B5CC0801F0070301259D4029
:1034F000EBB2064D05EBC005C808285C0AB11843BD
:1035000002E063EA0000C043285530BDDC00002023
:1035100010B5414C002240212046FEF7E8FBC820B0
:10352000FEF7DEFA012240212046FEF7E0FB0021F3
:10353000AE2000F029F90021084600F025F900210D
:10354000102000F021F90021402000F01DF9002199
:10355000812000F019F90021CF2000F015F9002199
:10356000A12000F011F90021C82000F00DF9002180
:10357000A62000F009F90021A82000F005F900219B
:103580003F2000F001F90021D32000F0FDF80021D8
:10359000084600F0F9F80021D52000F0F5F80021E8
:1035A000802000F0F1F80021D92000F0EDF8002192
:1035B000F12000F0E9F80021DA2000F0E5F8002120
:1035C000122000F0E1F80021DB2000F0DDF80021FE
:1035D000402000F0D9F80021202000F0D5F800218B
:1035E000022000F0D1F800218D2000F0CDF800215C
:1035F000142000F0C9F80021A42000F0C5F8002133
:10360000A62000F0C1F8FFF757FF0021BDE81040E9
:10361000AF2000F0B9B800000008014070B5114EAD
:10362000002400BF04F1B000C0B2002100F0ACF8EB
:103630000021084600F0A8F80021102000F0A4F8AE
:103640005FF0000506EBC5000121005D00F09CF86D
:103650006D1CEDB2802DF5D3641CE4B2082CE1D3CF
:1036600070BD0000DC0000202DE9FC4F1C460E461A
:1036700082468B460190082B0DD0600700D00120B8
:1036800000EBD40061084843C0B28146203AD0B272
:10369000009000204BE00620F7E7082C13D00C2CFC
:1036A00018D0102C1BD0182C44D10098234900EBC3
:1036B000C00000BF01EB8001002711F80850E807A7
:1036C00012D00B9A13E000981D4900EB400001EB6B
:1036D0004001F1E700981B4900EB4000EAE71A4976
:1036E000009801EB0011E7E70B9828B30022314660
:1036F0005046FFF7F7FE761C7F1C6D08FFB2F6B24E
:10370000082FDCD30AF1010000F0FF0A082C0AD0D0
:103710000199AAEB0100B0EB540F04D10BF10800A2
:103720008A4600F0FF0B08F101005E46C0B28046F9
:103730004845B2D3BDE8FC8F0122D8E7E851000824
:103740005C45000884470008F84B00082DE9F84163
:103750001E46154688460446079F0BE03346414601
:1037600020460097FFF780FF082E0AD004EB560092
:10377000C4B26D1C2A78A2F120005E28EED9BDE803
:10378000F881A41DE4B2F4E72DE9F0411A4E054694
:1037900009B1012200E0002220213046FEF7A7FAFD
:1037A000002210213046FEF7A2FA144F0024002216
:1037B00001213846FEF79BFA280601D5012200E0D8
:1037C000002280213046FEF792FA01221146384647
:1037D000FEF78DFA6806641C050EE4B2082CE6D3E9
:1037E000012210213046FEF782FA3046BDE8F04152
:1037F00001222021FEF77BBA00080140000C0140A5
:1038000070477047FEF72EBD30B593B0282168464B
:10381000FCF781FD14210AA8FCF77DFD002401219D
:1038200008040F94109412940491CDE90010CDE98E
:10383000080411940294022507956846FEF754FF88
:1038400008B172B6FEE70F20CDE90A054FF480609B
:10385000CDE90C4000210AA80E94FEF763FE08B1E2
:1038600072B6FEE70FA80F951194FEF7E5FD00284C
:1038700001D072B6FEE713B030BD70470148FFF7C4
:1038800045BA000094000020F0B50268194B1A4CAC
:103890001A4D4FF08047984205D0B84203D0A0425D
:1038A00001D0A84203D122F070064A683243984200
:1038B00005D0B84203D0A04201D0A84203D122F4DF
:1038C0004074CA6822434C6922F08002224302609D
:1038D0008A68C2620A688262984201D109690163FA
:1038E000012141610169C90703D0016921F001018A
:1038F0000161F0BD002C01400004004000080040C0
:1039000070B5056A046A24F00104046284690F4EEC
:10391000B04208D0B0F1804F05D00D4EB04202D079
:103920000C4EB04203D124F00304144301E044F0F0
:1039300001041A0724F0F00444EA126225F00A0395
:1039400001F00A0119438261016270BD002C01403F
:10395000000400400008004030B5046A056A25F004
:1039600010050562856925F4407545EA022222F4B6
:1039700070454FF6FF7202EA033224F0A0032A4397
:10398000A02404EA011119438261016230BDFEE7FF
:10399000490050EAC12018BF04204A0D18BF40F06A
:1039A000010040F2FF72B2EB515F08BF40F002002D
:1039B000012808BF052070470907090E002804DB0D
:1039C00000F1E02080F80014704700F00F0000F1D3
:1039D000E02080F8141D704730380A2801D20120F9
:1039E000704700207047000010B50446FEF730FE17
:1039F0000349B0FBF1F16143491EFDD210BD000047
:103A000000093D001CB5FEF735FCFFF7FDFEFFF792
:103A1000ADFCFFF7F9FCFFF717FDFFF77FFCFFF7A1
:103A200077FDFDF799FCFDF715FDDFF85CA1DFF8E8
:103A30005C91574DDFF85CB1012400BFFDF7ACFC91
:103A40000746FFF7FFF98046FDF740FD0646FDF704
:103A500061FC0190FFF730FD002108234EA20846CB
:103A60000094FFF773FE08233A4600211E200094BD
:103A700000F0B0F808234AA2102100200094FFF7BC
:103A800065FE4046D0451CD2294600F00BFC00F0F4
:103A9000E9FA00225B4600F0CFF800F075F900F07B
:103AA000D5FB294600F010FB0246082310213C20DC
:103AB000009400F08FF8082310213CA264200094A9
:103AC00004E008233AA210213C200094FFF73EFEB8
:103AD000082339A2202100200094FFF737FE4E452D
:103AE0001DD02946304600F0DDFB00F0BBFA002275
:103AF0005B4600F0A1F800F047F900F0A7FB29466B
:103B000000F0E2FA0246082320211E20009400F073
:103B100061F8082320212AA24620009404E008230B
:103B200023A220211E200094FFF710FE082325A2C7
:103B3000302100200094FFF709FE2946019800F08B
:103B4000B1FB00F08FFA00225B4600F075F800F040
:103B50001BF900F07BFB294600F0B6FA0246082369
:103B600030213C20009400F035F8082318A23021C1
:103B700064200094FFF7EAFDFFF750FD4FF4FA7060
:103B8000FDF7AEFF5AE70000000080809AF979C483
:103B9000000020410000E03F4C75783A0000000032
:103BA00044697374616E63653A000000636D0000E0
:103BB0004572726F7200000054656D703A0000002B
:103BC0004300000048756D69646974793A0000002B
:103BD00025000000F0B587B007461D460E4610468A
:103BE0000C9C00F03FFA02460B4606A101A8FCF728
:103BF000F7FA2B4601AA314638460094FFF7A6FD96
:103C000007B0F0BD252E31660000000010B5002978
:103C10000AD00878002807D005487844FCF700FF50
:103C2000002801D0002010BD0248784410BD0000DB
:103C300006280000FE27000010B591EA030F48BFD8
:103C400083F0004300F12C81841A71EB030C05D240
:103C5000121943EB0C03001B61EB0C01DFF824E1AC
:103C60004FEA1154A4EB135C1EEA430F18BF9EEAFF
:103C7000445F73D023EA0E03DCF1200E21EA0451E5
:103C800043F4801332D322FA0CFE10EB0E0023FA19
:103C90000CFE41EB0E01CCF1200E03FA0EFE10EBF0
:103CA0000E0051F10001B1F5801FCCF1200E32D28F
:103CB00001EB045112FA0EF2BDE8104058BF7047F4
:103CC000401C38BF5FEA420218BF7047002814BF8B
:103CD00020F0010041F100014FEA410313F5001FFC
:103CE00038BF7047A1F1C04100F0CBB8012A43EBC7
:103CF0000302ACF1200CDCF11F0E32BF4FF0000EBE
:103D000023FA0CF310EB030041EB0451B4EB115F09
:103D1000D0D0A1EB045101F5801149085FEA3000D1
:103D200001EB04510ED350F1000038BF12FA0EFE21
:103D300008D1BDE81040C9E7401C38BF5FEA420225
:103D4000CAD1C3E7BDE810404FEA410313F5001F95
:103D500038BF7047A1F1C04100F093B89EEA445FBC
:103D600008D011EA5E0FBDE8104004BF01F0004129
:103D700000207047BDE8104070B500F034F800BF77
:103D800064FBBE3E0000E0FF4FEA41034FEA53539D
:103D9000A3F58063D3F11E03C8BFD3F1210C0CDD62
:103DA0004FF0004242EAC12242EA505232FA03FC8A
:103DB0008CEAE17CACEBE1707047102BC4BF0020B3
:103DC000704703F5787CBCF1FF3F04D06FF00042F0
:103DD00082EA2100704770B500F005F8499224800E
:103DE00000207047F2E70EF1020E2EF0030E5EF88F
:103DF000046B364205D4012A43EB030515F5001F79
:103E000012D8012841EB010C1CF5001F0CD80ED173
:103E10004FEAD17C15F5001F0CEB4C0C0CF1020C99
:103E200008BF4CEBD37C04E04FF0080C01E04FEAF4
:103E3000D37C0CEB4C0526FA05F606F00706B6F126
:103E4000040C06D20EEB860CBDE870404CF0010C61
:103E50006047DFE80CF0090B02024FF000414FF021
:103E60000000A1F5002170BD19461046012851EB54
:103E7000010418BFD4F5001484BF002001F00041F4
:103E800070BD0808A0F500114FEA3101704700002D
:103E900010B591EA030F48BF83F000433FF5D4AE5D
:103EA000841A71EB030C07D212198CF0004C43EB0F
:103EB0000C03001B61EB0C01DFF8A4E14FEA115485
:103EC000A4EB135C1EEA430F18BF9EEA445F00F0A8
:103ED000B08023EA6E03524221EA0451C3EB6E0321
:103EE00038BF5B1EDCF1200E25D322FA0CFE10EB4E
:103EF0000E0043FA0CFE41EB0E01CCF1200E03FA4A
:103F00000EFE10EB0E0051F10001CCF1200E29D471
:103F100012FA0EF201EB0451BDE8104058BF704791
:103F2000401C1CBFB2F1004F704700280CBF491C59
:103F300020F00100704712EB020E43EB030218BFA2
:103F40004FF0010E4EEA4202ACF1200CDCF11E0EE5
:103F500054D943FA0CFE10EB0E0051F1FF31CCF1B5
:103F60001E0ED5D50EF1010E12FA0EFE404141EBA8
:103F7000010101EB445C5FEA5C5C10D910EBDE7080
:103F800001EB045138BFBEF1004FBDE8104018BF2F
:103F9000704700280CBF491C20F00100704730D248
:103FA0004FEAD42C11F5001124F400641BD0B1FAAF
:103FB00081F20B3AA41AA41ED2F12003914030FAE8
:103FC00003F31943904001EBCC71002C01EB045139
:103FD000BDE81040A8BF704701F1C0414FF000009C
:103FE00001F000417047B0FA80F310FA03F100D1FC
:103FF00010BDE41A173C4805C90AE4E701EB045177
:1040000010BD491001EB0451BDE810404FEA3000EB
:1040100002E04FF0000170474A0008BF0042F8D0AC
:10402000B2F5001F28BF704701F000414FF00000BB
:1040300070479EEA445F07D011EA5E0FBDE810406A
:1040400004BF002100207047BDE8104070B5FFF7A5
:10405000CAFE00BF40DFF63E83F0004110467047C5
:104060000000E0FF43004FEAD30C4FEA3C0C434012
:104070001FBF40070CF1605113F0FE4F70471CF05A
:10408000006F03D100200CF0004170470CF000439A
:1040900043EA507010B540EACC0000F084F900BF4C
:1040A000000000924FEA0001FFF7EBBE4FF0004125
:1040B0004FF00000A1F5002170470000014800F01A
:1040C000BFB900BF0000C07F4FF47F0C1CEAD012C4
:1040D0001EBF1CEAD11392EA0C0F93EA0C0F00F0FA
:1040E000858090EA010F48BF42F4807240F4000CD2
:1040F00041F400002CF07F4120F07F4000B5814268
:10410000A2EB03020FF2081CACEB504EC0F1000012
:104110009EF800E04FEA4E0E00FB0EFC38BF49004F
:104120004FEA2C1C02F5FA020CFB0EF34FEACE1EEE
:104130004FEA112C4FEAC1210EEB635E42EB2242A3
:104140000EFB0CFC4FEA1C5300FB03114FEA112C31
:104150004FEA01310EFB0CFC4FEADC4C00FB0C116A
:10416000C14228BF09184CEB03335DF804EB10EB98
:10417000410143EBC250B2F57C0F38BF704729D5DF
:1041800012F0F00F1CBF00F1C04000F0004070477B
:10419000008182838485868788898B8C8D8E8F9120
:1041A0009293959697999A9C9D9FA0A2A3A5A7A844
:1041B000AAACAEB0B2B3B5B7B9BCBEC0C2C5C7C970
:1041C000CCCED1D4D7D9DCDFE2E6E9ECF0F3F7FAD4
:1041D000FE0000004FEA400C0CF1807CBCF17E4FE9
:1041E00028BF7047B0F1C04000F023B990EA010F3A
:1041F0000CEAD11348BF42F48072624538BF634570
:1042000007D213F47F0F16D080EA010000F00040BF
:10421000704710B500F0C7F8097EFC3E00F005B805
:1042200080EA010000F00040704780EA010000F0E1
:10423000004000F0FEB812F47F0F04BF0248704740
:1042400080EA010000F0F5B80000C07F10F00041E6
:1042500048BF4042B0FA80F310FA03F2C3F19D0365
:104260000BD051EAC35101EB1220530638BF7047FF
:1042700000F1010008BF20F001007047B0FA80F3A0
:1042800010FA03F2C3F19D030AD0D90501EB122005
:10429000530638BF704700F1010008BF20F001004D
:1042A000704700004FF47F0C1CEAD0121EBF1CEABE
:1042B000D11392EA0C0F93EA0C0F00F0478090EABA
:1042C000010F48BF42F480724FF0004C4CEA0020CE
:1042D0004CEA012102EB0302A0FB0113A2F500024C
:1042E000002918BF43F001035B0028BF4FEA3303E6
:1042F00042EB22425FEA132C4CEBC2502EBFBCEBC8
:10430000436FB2F57C0F70474FEA036CBCF1004F6E
:1043100008BF20F00100B2F57C0F38BF70470BD505
:1043200082F0FF0212F5803FC8BF704700F1C04025
:10433000D8BF00F00040704700F5000C5FEA4C0C5D
:1043400048BF7047B0F1C04000F073B890EA010F69
:104350000CEAD11348BF42F48072624538BF63450E
:1043600004D280EA010000F00040704710B500F070
:104370001AF800BF8900013E00F007B800F009B844
:104380005FEA410C5FEA1C6C08D080EA010000F093
:1043900050B85FEA400C5FEA1C6CF6D14FF0004069
:1043A000A0F5800070470EF1020E2EF0030E5EF8AD
:1043B000044B244204D44FEA4102B2F17F4F11D89A
:1043C0004FEA4003B3F17F4F0CD80ED14FEAD07CB7
:1043D000B2F17F4F0CEB4C0C0CF1020C08BF4CEB14
:1043E000D17C04E04FF0080C01E04FEAD17C0CEBEB
:1043F0004C0324FA03F404F00704B4F1040C06D2CD
:104400000EEB840CBDE810404CF0010C6047DFE877
:104410000CF0070802024FF00040A0F5800010BD2C
:104420000846420018BFD2F1807288BF00F00040F9
:1044300010BDFF2141EAD050C0057047FCF76EB8AF
:104440000CF00F03092B08BF082000F051800A2B45
:104450000BD0082B18BF704708BF1CF0400F0AD0C4
:104460004FF000004FF0000170471CF0400F18BFE4
:104470004FF0004070471CF0100F08D020F0704340
:1044800000F07F4242EAD3014FEA4370704700F0E8
:10449000604021F07F4242EA000201F07F4040EAA2
:1044A000727070474FF0FF0212EAD0521CBF92F0B8
:1044B000FF038B42C2BFD14200EBC1507047002ABC
:1044C0000AD0002B0BD0002900F00040A4BF40F020
:1044D000FE4040F40000704700F000407047430287
:1044E0004FF00B0C18BF4CF0806C7FF4E7AD7047B9
:1044F0001CF4801F11D01CF4E02F03D06FEACC31E4
:10450000490070474FF04050EFF3008222F07042B4
:1045100042EA000282F3008870474FF000007047C3
:10452000010202030405060708090A0B0C0D0E0F11
:104530001010010202030405060708090A0B0C0DFE
:104540000E0F101000000000000000000102030424
:104550000607080900000000010203040000000033
:1045600000000000002F00000000070007000014FA
:104570007F147F1400242A7F2A1200626408132308
:1045800000364955225000000503000000001C229F
:104590004100000041221C000014083E08140008DD
:1045A000083E0808000000A060000008080808088D
:1045B000000060600000002010080402003E514925
:1045C000453E0000427F40000042615149460021C3
:1045D00041454B31001814127F10002745454539DD
:1045E000003C4A4949300001710905030036494938
:1045F000493600064949291E0000363600000000F1
:10460000563600000008142241000014141414143B
:1046100000004122140800020151090600324959E4
:10462000513E007C1211127C007F49494936003E00
:1046300041414122007F4141221C007F49494941BB
:10464000007F09090901003E4149497A007F0808B5
:10465000087F0000417F4100002040413F01007F72
:1046600008142241007F40404040007F020C027F3E
:10467000007F0408107F003E4141413E007F090950
:104680000906003E4151215E007F09192946004676
:10469000494949310001017F0101003F4040403F4D
:1046A000001F2040201F003F4038403F0063140897
:1046B0001463000708700807006151494543000072
:1046C0007F41410000552A552A55000041417F0095
:1046D000000402010204004040404040000001028A
:1046E0000400002054545478007F48444438003873
:1046F0004444442000384444487F003854545418FB
:1047000000087E0901020018A4A4A47C007F08040C
:1047100004780000447D4000004080847D00007FDC
:10472000102844000000417F4000007C04180478F9
:10473000007C0804047800384444443800FC2424F5
:1047400024180018242418FC007C080404080048DD
:104750005454542000043F444020003C4040207CFE
:10476000001C2040201C003C4030403C00442810ED
:104770002844001CA0A0A07C004464544C441414A1
:1047800014141414000000000000000000000000D9
:104790000000FC000000000002000000000C020C01
:1047A000020000000000000090D0BCD0BC900003CC
:1047B000000300001824FE448C00030207020100DD
:1047C0001824D8B04C80000300010201C038E4383E
:1047D000E0000102020102020806000000000000E1
:1047E00000000000000000F80402000000010204C4
:1047F000000204F800000004020100009060F8606C
:1048000090000000010000002020FC20200000009B
:104810000100000000000000000008060000000089
:1048200020202020200000000000000000000000E8
:1048300000000002000000000080601C0200040371
:1048400000000000F8040404F80001020202010064
:104850000008FC0000000002030200001884442449
:10486000180003020202020008042424D8000102F6
:104870000202010040B088FC80000000000302003A
:104880003C242424C400010202020100F824242C48
:10489000C0000102020201000C04E41C040000003C
:1048A00003000000D8242424D800010202020100E1
:1048B00038444444F80000030202010000001000E4
:1048C00000000000020000000000200000000000C6
:1048D00006000000002050880402000000000102D1
:1048E000909090909000000000000000000204886A
:1048F00050200002010000001804C4241800000029
:1049000002000000F804E494F80001020202020030
:1049100000E09CF0800002030000030204FC242459
:10492000D800020302020100F80404040C00010292
:104930000202010004FC0404F80002030202010068
:1049400004FC24740C0002030202030004FC24741F
:104950000C00020302000000F0080444CC400001F7
:104960000202010004FC2020FC04020300000302F8
:104970000404FC040400020203020200000404FC1C
:10498000040406040403000004FC24D00C04020305
:104990000200030204FC04000000020302020203FE
:1049A000FC3CC03CFC0003000300030004FC30C4DA
:1049B000FC04020302000300F8040404F8000102EE
:1049C0000202010004FC242418000203020000007B
:1049D000F8848404F80001020207050004FC246442
:1049E0009800020302000302182424448C000302EE
:1049F000020201000C04FC040C000002030200008F
:104A000004FC0000FC04000102020100047C80E0C0
:104A10001C040000030000001CE03CE01C0000033C
:104A200000030000049C609C0400020300030200D9
:104A3000041CE01C04000002030200000C84641C3F
:104A400004000203020203000000FE020200000054
:104A500007040400000E30C0000000000001020046
:104A6000000202FE0000000404070000000402042B
:104A70000000000000000000000000000000080826
:104A80000808080800000200000000000000000004
:104A90000040A0A0C00000010202030204FC20208C
:104AA000C00000030202010000C0202060000001DD
:104AB0000202020000C02024FC00000102020302E6
:104AC00000C0A0A0C0000001020202000020F824E3
:104AD00024040002030202000040A0A0602000079E
:104AE0000A0A0A0404FC2020C00002030200030298
:104AF0000020E4000000000203020000000020E4A7
:104B0000000008080807000004FC80E020200203E1
:104B1000020003020404FC0000000202030202007F
:104B2000E020E020C00003000300030020E020207C
:104B3000C00002030200030200C02020C0000001E8
:104B40000202010020E02020C000080F0A0201003C
:104B500000C02020E0000001020A0F0820E04020F1
:104B600020000203020000000060A0A0200000025C
:104B7000020203000020F8200000000001020200F1
:104B800020E00020E00000010202030220E020807B
:104B900060200000030100006080E08060000003EE
:104BA0000003000020608060200002030003020078
:104BB00020E0208060200808070100000020A0609D
:104BC0002000000203020200000020DE02000000BC
:104BD00000070400000000FF00000000000F0000BC
:104BE0000002DE20000000040700000002010204B1
:104BF00004020000000000000000000000000000AF
:104C00000000000000000000000000F800000000AC
:104C1000000000333000000000100C06100C0600ED
:104C2000000000000000000040C07840C078400054
:104C3000043F04043F040400007088FC08300000B6
:104C4000001820FF211E0000F008F000E01800000E
:104C500000211C031E211E0000F0088870000000C7
:104C60001E2123241927211010160E000000000019
:104C70000000000000000000000000E01804020036
:104C8000000000071820400000020418E0000000A7
:104C90000040201807000000404080F080404000A5
:104CA0000202010F01020200000000F000000000FB
:104CB0000101011F010101000000000000000000CF
:104CC00080B0700000000000000000000000000044
:104CD00000010101010101010000000000000000CD
:104CE0000030300000000000000000008060180468
:104CF000006018060100000000E010080810E00045
:104D0000000F102020100F00001010F8000000000D
:104D10000020203F20200000007008080888700054
:104D200000302824222130000030088888483000D4
:104D30000018202020110E000000C02010F80000F4
:104D400000070424243F240000F80888880808008D
:104D50000019212020110E0000E0108888180000A2
:104D6000000F112020110E0000380808C838080074
:104D70000000003F000000000070880808887000F4
:104D8000001C222121221C0000E010080810E00075
:104D90000000312222110F00000000C0C0000000FE
:104DA0000000003030000000000000800000000023
:104DB000000080600000000000008040201008001B
:104DC00000010204081020004040404040404000E4
:104DD00004040404040404000008102040800000BF
:104DE0000020100804020100007048080808F000C4
:104DF0000000003036010000C030C828E810E00094
:104E00000718272423140B000000C038E00000001E
:104E1000203C23020227382008F888888870000088
:104E2000203F202020110E00C0300808080838005C
:104E3000071820202010080008F808080810E000D3
:104E4000203F202020100F0008F88888E808100074
:104E5000203F20202320180008F88888E808100048
:104E6000203F200003000000C03008080838000080
:104E700007182020221E020008F808000008F80881
:104E8000203F210101213F20000808F80808000008
:104E90000020203F2020000000000808F80808003B
:104EA000C08080807F00000008F888C028180800B3
:104EB000203F20012638200008F8080000000000EC
:104EC000203F20202020300008F8F800F8F80800E3
:104ED000203F003F003F200008F830C00008F808DD
:104EE000203F200007183F00E01008080810E000ED
:104EF0000F10202020100F0008F808080808F00004
:104F0000203F210101010000E01008080810E00026
:104F10000F18242438504F0008F8888888887000BB
:104F2000203F2000030C302000708808080838005B
:104F30000038202121221C00180808F80808180051
:104F40000000203F2000000008F808000008F808D2
:104F5000001F202020201F000878880000C8380883
:104F6000000007380E010000F80800F80008F800FB
:104F7000033C0700073C0300081868808068180895
:104F800020302C03032C30200838C800C838080013
:104F90000000203F2000000010080808C838080062
:104FA0002038262120201800000000FE0202020006
:104FB0000000007F40404000000C30C000000000B6
:104FC000000000010638C00000020202FE000000DE
:104FD000004040407F000000000004020202040084
:104FE00000000000000000000000000000000000C1
:104FF00080808080808080800002020400000000A9
:1050000000000000000000000000808080800000A0
:105010000019242222223F2008F80080800000008E
:10502000003F112020110E00000000808080000051
:10503000000E112020201100000000808088F80060
:10504000000E112020103F20000080808080000092
:10505000001F222222221300008080F088888818F6
:105060000020203F20200000000080808080800001
:10507000006B94949493600008F800808080000096
:10508000203F210000203F20008098980000000071
:105090000020203F202000000000008098980000A1
:1050A00000C08080807F000008F8000080808000C1
:1050B000203F24022D302000000808F800000000E6
:1050C0000020203F202000008080808080808000A1
:1050D000203F20003F20003F808000808080000033
:1050E000203F210000203F200000808080800000C1
:1050F000001F202020201F008080008080000000F2
:1051000080FFA12020110E00000000808080800020
:10511000000E112020A0FF80808080008080800011
:1051200020203F212000010000008080808080003E
:105130000033242424241900008080E080800000B3
:105140000000001F20200000808000000080800000
:10515000001F202020103F20808080000080808061
:1051600000010E30080601008080008000808080F1
:105170000F300C030C300F00008080008080800016
:105180000020312E0E312000808080000080808041
:1051900080818E70180601000080808080808000F1
:1051A0000021302C2221300000000000807C02020F
:1051B00000000000003F404000000000FF00000031
:1051C00000000000FF0000000002027C80000000E0
:1051D0000040403F000000000006010102020404FC
:1051E00000000000000000000000000000000000BF
:1051F00000000000000000000000000000000000AF
:10520000000000000000000000000000000000009E
:1052100000F0F0F0000000000000000000017F013D
:105220000000000000000000001C1C1C000000002A
:1052300000008060301C8C60301C0C0000000000FE
:10524000000000000000000000000000000000005E
:1052500000000000000000E00000000000E000008E
:105260000086E69F86868686E69F860000011F01EF
:10527000010101011F010100000080C06020F82031
:10528000E0C00000000003070C18FF70E18100007F
:105290000000070F10107F100F07000080602060D3
:1052A00080000000E02000000F3020309F70DC37CD
:1052B0001030C0000000100E03000718101807007F
:1052C0000000C02020E0C0000000000080E01F3887
:1052D000E88703C43C040000070F1810100B070DEB
:1052E0001010080000808C4C380000000000000006
:1052F00000000000000000000000000000000000AE
:10530000000000000000000000000000000080E03D
:10531000300804000000000000FEFF010000000053
:10532000000000000000030F1820400000040830B7
:10533000E0800000000000000000000001FFFE000F
:1053400000000000004020180F03000000000000D3
:10535000000000000000C00000000000004266667F
:105360003C18FF183C666642000000000000030085
:1053700000000000000000000000800000000000AD
:10538000001010101010FF1010101010000000007E
:10539000000003000000000000000000000000000A
:1053A00000000000000000000000000000000000FD
:1053B00000808C4C3800000000000000000000005D
:1053C000000000000000000000101010101010106D
:1053D000101010000000000000000000000000009D
:1053E00000000000000000000000000000000000BD
:1053F000000000000000000000001C1C1C00000059
:10540000000000000000000000000000E0380C0078
:105410000000000080701C03000000000060380ED7
:105420000100000000000000000080C0602020603B
:10543000C080000000FEFF010000000001FFFE0030
:105440000001070E181010180E07010000008080E0
:1054500080C0E000000000000000000000FFFF002E
:105460000000000000001010101F1F10101000009E
:105470000080402020202060C08000000003030046
:10548000804020381F070000001C1A19181818182F
:10549000181F00000080C020202060C08000000095
:1054A000000303001010182FE780000000070F1002
:1054B000101010180F070000000000000000C0E0EE
:1054C000F000000000C0B088868180FFFF8080006F
:1054D000000000000010101F1F1010000000E0600E
:1054E000606060606060000000003F1008080818FD
:1054F000F0E0000000070B101010101C0F0300005C
:10550000000080C040202020E0C0000000FCFF21FF
:105510001008080818F0E0000001070C181010101F
:10552000080F03000000C0E06060606060E06000A1
:10553000000003000000E018070000000000000069
:10554000001F1F00000000000080C06020202020FD
:1055500060C080000087EF2C1818303068CF8300BF
:1055600000070F0810101010180F07000000C0C02F
:1055700020202020C0800000001F3F6040404020CD
:1055800010FFFE0000000C1C101010080F0300009C
:10559000000000000000000000000000000000000B
:1055A000000E0E0E0000000000000000001C1C1C7D
:1055B00000000000000000000000000000000000EB
:1055C00000000000000C0C000000000000000000C3
:1055D00000583800000000000000000000000080BB
:1055E000402010000000102844820100000000004C
:1055F000000000000000010204081000000000008C
:1056000000000000000000000084848484848484FE
:1056100084848400000000000000000000000000FE
:10562000000010204080000000000000000000008A
:10563000000001824428100000001008040201004C
:105640000000000000C020201010101030E0C0004A
:105650000003030000F010080C0703000000000026
:105660001C1C1C0000000000000000C04060202046
:105670002040C00000FCFF01F00E03C1FE03807F4C
:105680000001070E081111101109040200000000AA
:1056900080E0E000000000000000807C4340477F85
:1056A000F880000010181F1000000000131F1C10CD
:1056B00020E0E02020202060C080000000FFFF10DC
:1056C000101010182FE78000101F1F10101010105E
:1056D000180F0700000080C0402020202060E0005C
:1056E00000FCFF0100000000000001000001070EA7
:1056F000181010100804030020E0E02020202040B3
:10570000C080000000FFFF000000000001FFFE005D
:10571000101F1F10101018080E07010020E0E020D5
:10572000202020202060800000FFFF101010107C3F
:1057300000000000101F1F1010101010101806009D
:1057400020E0E020202020206060800000FFFF108B
:105750001010107C00000100101F1F10000000003E
:1057600000000000000080C06020202040E0000019
:1057700000FCFF0100004040C0C140400001070E96
:10578000181010100F0F000020E0E02000000000B3
:1057900020E0E02000FFFF101010101010FFFF00AD
:1057A000101F1F1000000000101F1F1000002020FD
:1057B00020E0E020202000000000000000FFFF00AB
:1057C0000000000000001010101F1F10101000003B
:1057D00000000000202020E0E02020200000000049
:1057E000000000FFFF0000000060E0808080C07FBC
:1057F0003F00000020E0E020000020A0602020000A
:1058000000FFFF30187CE3C000000000101F1F10D5
:10581000000001131F1C181020E0E0200000000011
:105820000000000000FFFF0000000000000000007A
:10583000101F1F10101010101018060020E0E0E0DC
:1058400000000000E0E0E02000FF013FFEC0E01E9D
:1058500001FFFF00101F1000031F0300101F1F1087
:1058600020E0E0C0000000000020E02000FF000376
:10587000071C78E08000FF00101F100000000000EF
:10588000030F1F00000080C060202060C080000067
:1058900000FEFF010000000000FFFE000001070EF7
:1058A000181010180C07010020E0E0202020202014
:1058B00060C0800000FFFF2020202020301F0F004C
:1058C000101F1F100000000000000000000080C03A
:1058D00060202060C080000000FEFF01000000008A
:1058E00000FFFE000001070E1111133C7C67210030
:1058F00020E0E0202020202060C0800000FFFF107A
:105900001030F0D0080F0700101F1F100000000318
:105910000F1C10100080C060202020204040E000BC
:1059200000070F0C1818303060E08100001F0C08D1
:1059300010101010180F07008060202020E0E020D9
:10594000202060800100000000FFFF000000000137
:1059500000000000101F1F100000000020E0E020E9
:10596000000000000020E02000FFFF000000000019
:105970000000FF0000070F1810101010100807009B
:105980002060E0E02000000020E060200000077FB1
:10599000F88000807C03000000000000071F1C0747
:1059A0000000000020E0E02000E0E0200020E020F7
:1059B0000007FFF8E01FFFFCE01F00000000031FCE
:1059C0000300011F03000000002060E0A000002091
:1059D000E0602000000000038F7CF8C6010000009A
:1059E0000010181E130001171F1810002060E0E0BF
:1059F0002000000020E06020000001073EF8E018D1
:105A00000700000000000010101F1F101000000011
:105A100000806020202020A0E0E0200000000000A6
:105A2000C0F03E0F0300000000101C1F17101010E4
:105A3000101806000000000000FC04040404040028
:105A40000000000000FF0000000000000000000057
:105A5000007F404040404000000010E00000000097
:105A60000000000000000000031C60800000000037
:105A700000000000000000030C708000000004041F
:105A8000040404FC0000000000000000000000FF0F
:105A900000000000000040404040407F0000000047
:105AA00000000010080C040C0810000000000000AA
:105AB00000000000000000000000000000000000E6
:105AC00000000000000000000000000000000000D6
:105AD00000000000000000000000000080808080C6
