:020000040800F2
:10000000C004002001010008271800080D1700088F
:10001000251800089B070008371B00080000000097
:100020000000000000000000000000002B18000885
:100030009D07000800000000291800082D1800087E
:100040001B0100081B0100081B0100081B01000820
:100050001B0100081B0100081B0100081B01000810
:100060001B0100081B0100081B0100081B01000800
:100070001B0100081B0100081B0100081B010008F0
:100080001B0100081B0100081B0100081B010008E0
:100090001B0100081B0100081B0100081B010008D0
:1000A0001B0100081B0100081B0100081B010008C0
:1000B000911800081B0100081B0100081B01000823
:1000C0001B0100081B0100081B0100081B010008A0
:1000D0001B0100081B0100081B0100081B01000890
:1000E0001B0100081B0100081B010008DFF80CD0F1
:1000F00000F020FB0048004781240008C0040020D5
:100100000648804706480047FEE7FEE7FEE7FEE7B1
:10011000FEE7FEE7FEE7FEE7FEE7FEE78F180008D2
:10012000ED000008202A04DB203A21FA02F0002129
:10013000704721FA02F3D040C2F1200291400843F7
:1001400019467047D2B201E000F8012B491EFBD2DC
:1001500070470022F6E710B513460A4604461946D2
:10016000FFF7F0FF204610BD2DE9FE4F81EA0304A2
:1001700004F0004421F0004100944FF0000B23F004
:10018000004350EA01045ED052EA03045BD0C3F39B
:100190000A54C1F30A552C44A4F2F3340194A0FB91
:1001A0000254C1F3130141F48011C3F3130343F468
:1001B000801301FB024400FB034E840A970A44EAC1
:1001C000815447EA8357A4FB076802958D0A05FB13
:1001D00007854FEA932C04FB0C542705029D4FEA38
:1001E000065847EA1637B5EB08056EEB070C870E85
:1001F000920E47EA811742EA8312A7FB0201B6EB8F
:100200000B0164EB00042B0D43EA0C335E1844EB46
:100210001C50DA465146E7FB0201C5F313044FEACE
:100220000B3343EA14534FEA0432019C43EA0603BA
:10023000A4F10C040294009CCDE900B400F0E6F8AF
:1002400003B0BDE8F08F00200146F9E770B521F05A
:10025000004303430CD0C1F30A550024D5EB040539
:1002600064EB0403D617AD1AB34102DB002001464C
:1002700070BD201841EB025170BD0EB540F2334104
:1002800002910021CDE900110A460B4600F0BEF8AC
:1002900003B000BD00F0004230F000400AD0C10DB4
:1002A00001F56071C0F3160042EA0151C20840072F
:1002B0001143704700200146704701F0004330B4FD
:1002C00021F0004150EA010206D00A0DA2F5607249
:1002D000C1F31301002A02DC30BC00207047440F38
:1002E00044EAC104C100E01830BC00EBC25000F089
:1002F00047B830B50B46014600202022012409E012
:1003000021FA02F59D4205D303FA02F5491B04FACE
:1003100002F52844151EA2F10102F1DC30BD2DE9E1
:10032000F05F0546002092469B4688460646814679
:1003300040241BE02846414647462246FFF7F2FE8E
:1003400053465A46C01A914110D3114618462246C8
:1003500000F002FA2D1A67EB01084F4622460120F1
:10036000002100F0F9F917EB00094E41201EA4F11D
:100370000104DFDC484631462A464346BDE8F09F8B
:100380000029A8BF7047401C490008BF20F00100A9
:10039000704710B4B0FA80FC00FA0CF050EA010487
:1003A00004BF10BC704749B1CCF1200421FA04F419
:1003B00011FA0CF118BF012121430843A3EB0C01F2
:1003C000CB1D4FEA00614FEA102042BF002010BC55
:1003D000704700EBC35010440029A4BF10BC704705
:1003E000401C490008BF20F0010010BC704710B548
:1003F000141E73F1000408DA401C41F10001921848
:100400005B411A4301D120F0010010BD2DE9F04DF0
:1004100092469B4611B1B1FA81F202E0B0FA80F245
:100420002032904600F098F904460F4640EA0A0050
:1004300041EA0B0153465A46084313D0114653EA8A
:10044000010019D0C8F140025046FFF76BFE054687
:100450000E4650465946424600F07EF9084305D004
:10046000012004E020463946BDE8F08D0020054318
:1004700046EAE0762C4337430A986305E40AA0EB8A
:1004800008000022FD0A44EA47540A3002D5002041
:100490000146E9E7010510196941DDE90845001940
:1004A0006941BDE8F04DA2E72DE9FE4F804681EAA3
:1004B0000300C00F0C46009021F0004123F00045DE
:1004C000B8EB0200A94105D24046214690461C46A1
:1004D0000B46024623F00040104347D0270DC7F3D8
:1004E0000A00C3F30A510290401A019040286BDAC7
:1004F000C3F3130040F4801B0098924620B1002300
:10050000D2EB030A63EB0B0B01985946C0F1400292
:10051000504600F021F906460D4650465946019ACC
:1005200000F029F910EB08006141002487EA11521C
:1005300084EAE7731A4340D0009A62B3019A012A11
:100540004FEA075215DC001B61EB02014FF000423D
:1005500002EA0752CDE90042001C41F58011324603
:100560002B46FFF753FF03B0BDE8F08F404621460E
:10057000F9E7001B61EB0201001C41F58013001834
:100580005B412018A2F5001747EB030140EAD57044
:10059000B6196D4111E06D084FEA360645EAC0759F
:1005A0004FEA0752001B61EB0201001C41F580116C
:1005B00049084FEA30000019514132462B4603B03A
:1005C000BDE8F04FFFF713BF009801224000002361
:1005D000D0EB020263EBE073009821464FEAE0742F
:1005E000B8EB000061EB0401E9E783F000435BE74F
:1005F00081F0004158E72DE9F04D81EA030404F051
:10060000004B21F0004514464FF0000A23F0004152
:1006100050EA050220D054EA01021DD0C5F30A5762
:100620000246C5F31303C1F31300C1F30A5640F4A5
:10063000801543F48013A7EB0608101BD64608F27A
:10064000FD3873EB050002D308F1010801E09218B0
:100650005B41B8F1000F03DA00200146BDE8F08DE0
:1006600000204FF48011064684460EE0171B73EB02
:10067000050705D3121B63EB050306434CEA010C87
:1006800049084FEA300092185B4150EA0107EDD16A
:1006900052EA030012D082EA040083EA050108430B
:1006A00005D0101BAB4106D20122002306E0002238
:1006B0004FF0004302E06FF0010253101AEB060006
:1006C0004CEB085110EB0A0041EB0B01BDE8F04D7B
:1006D000FFF78DBEC1F30A52C1F3130140F2FF339D
:1006E00041F480119A4202DA00200146704740F23C
:1006F00033439A42A2F2334202DC5242FFF712BD68
:1007000000F02AB830B5041E71F1000404DB4FF08C
:100710000044404264EB0101141E73F1000405DB48
:100720001C464FF00043524263EB0403994208BF5A
:10073000904230BD064C074D06E0E06840F00103F2
:1007400094E8070098471034AC42F6D3FFF7D2FC88
:10075000A4250008C4250008202A04DB203A00FA5A
:1007600002F1002070479140C2F1200320FA03F308
:10077000194390407047202A06DBCB17203A41FAF4
:1007800002F043EAE07306E041FA02F3D040C2F11E
:1007900020029140084319467047FEE7704772B641
:1007A000FEE7000070B5044600F004F90546601C41
:1007B00002D004480078044400F0FCF8401BA0423A
:1007C000FAD370BD000000202DE9F84FDFF8B89192
:1007D0000024A9F1040B23460F2709F1040AABF109
:1007E000040EC9E00125A5402A40AA427DD1674EEA
:1007F000D1F804C0ACEB0608B44532D014DCBCF12F
:10080000030F3AD009DCBCF1000F2AD0BCF1010F74
:100810001CD0BCF1020F31D11DE0BCF1110F17D07B
:10082000BCF1120F2AD119E0B8F5881F19D006DCE7
:10083000B8F5803F15D0B8F5801F1FD111E0B8F58D
:10084000001F0ED0B8F5041F18D10AE0CB6815E0E0
:10085000CB681B1D12E0CB6808330FE0CB680C336C
:100860000CE08B682BB1012B4FF0080303D04561DE
:1008700004E0042302E0056100E00023FF2A01D820
:10088000064601E000F104064FEA840501D9A5F10E
:100890002005D6F8008007FA05FC28EA0C0803FAC0
:1008A00005F548EA0508C6F800804D68ED0062D5F8
:1008B000374DAE6946F00106AE61AD6924F003061E
:1008C00005F001050095334D06EB050CDCF80850EA
:1008D000A607360F07FA06F825EA0805DFF8B880FC
:1008E000404503D14FF0000817E044E0DFF8AC804A
:1008F000404502D14FF001080FE0DFF8A4804045E9
:1009000002D14FF0020808E0DFF89880404502D19C
:100910004FF0030801E04FF0040808FA06F848EA2F
:100920000508CCF808804D68D9F80060ED024D4606
:1009300001D5164300E096432E604D68DAF800605A
:10094000AD02554601D5164300E096432E604D6832
:10095000DBF80060AD035D4601D5164300E0964329
:100960002E604D68DEF80060ED03754601D5164334
:1009700000E096432E60641C0D682A46E5407FF433
:1009800031AFBDE8F88F00000804014000001110ED
:10099000001002400000014000080140000C01402E
:1009A00000100140001401400AB1016170470904C0
:1009B000FBE700000148806870470000000000204D
:1009C000024881680278114481607047000000206D
:1009D000074810B5016841F010010160032000F0E4
:1009E00075F80F2000F006F800F024F8002010BD84
:1009F0000020024070B50D4D04464FF47A712878FE
:100A0000B1FBF0F00A490968B1FBF0F000F0E2FA3E
:100A100048B9102C07D200222146501E00F036F8AB
:100A200000206C6070BD012070BD0000000000203F
:100A30000C0000200C4808B5816941F0010181617A
:100A4000816901F001010091C16941F08051C161EA
:100A5000C06900F0805000900448416821F0E061D6
:100A600041F00071416008BD0010024000000140EB
:100A7000002809DB00F01F0201219140400980009D
:100A800000F1E020C0F8001170470000F0B40E4BF8
:100A90001B680C46C3F30223C3F10705042D00D9DC
:100AA0000425191D072901D2002300E0DB1E0126C1
:100AB00006FA05F1491E214099409E40761E1640D7
:100AC0003143F0BC01F048B80CED00E0064900F0FD
:100AD000070208684FF6FF03184040EA0220034A65
:100AE00010430860704700000CED00E00000FA05BC
:100AF0002DE9F0470F46050061D0434E306800F005
:100B00000700B84209D2306820F00700384330604F
:100B1000306800F00700B84251D128683B4C81078B
:100B200012D5400703D5606840F4E0606060287823
:100B3000000703D5606840F4605060606068A96891
:100B400020F0F000084360602878C00728D068686B
:100B5000012810D02168022810D0890700292EDA38
:100B6000616821F0030101436160FFF723FF8046C4
:100B700041F288390DE021688903EFE78901EDE74B
:100B8000FFF718FFA0EB0801494502D90320BDE893
:100B9000F0876068696800F00C00B0EB810FEFD15E
:100BA000306800F00700B8420BD9306820F0070029
:100BB00038433060306800F00700B84201D00120AF
:100BC000E5E72878400705D56068E96820F4E0602B
:100BD000084360602878000706D56068296920F41A
:100BE000605040EAC100606000F03EF86168084A69
:100BF000C1F30311515CC84006490860064800680B
:100C0000FFF7F8FE0020C2E700200240001002407B
:100C10008A2500080C00002004000020014800681C
:100C2000704700000C00002004480549006849682E
:100C3000044AC1F30221515CC84070470C000020F7
:100C4000001002409A2500080448054900684968D8
:100C5000044AC1F3C221515CC84070470C00002017
:100C6000001002409A2500080E4A51680E4801F013
:100C70000C03042B11D0082B0FD10C48C1F3834374
:100C8000C903C05C0AD55168084AC1F34041921EAD
:100C9000515C054A5043B0FBF1F0704704494843AA
:100CA000704700000010024000127A007A25000808
:100CB00000093D002DE9F84F040070D02078C04DA8
:100CC000C00749D06868C0F38100012807D0686870
:100CD000C0F38100022809D16868C00306D52868DE
:100CE000800339D560680028E7D035E06068B0F54A
:100CF000803F0BD010B1B0F5A02F11D0286820F4A0
:100D000080302860286820F4802002E0286840F4C1
:100D100080302860606890B1FFF74CFE06460AE01C
:100D2000286840F480202860F0E700BFFFF742FE0B
:100D3000801B642873D828688003F7D50CE0FFF780
:100D400039FE064605E000BFFFF734FE801B64282D
:100D5000F0D828688003F7D420789A4E80074FF0A7
:100D600001094FF0000839D5686810F00C0F07D062
:100D70006868C0F38100022809D16868C00306D4FE
:100D80002868800714D52069012808D110E020695F
:100D9000B0B1C6F80090FFF70DFE074605E00AE186
:100DA000FFF708FEC01B0228C4D828688007F7D5C3
:100DB0002868616920F0F80040EAC10028600DE071
:100DC000C6F80080FFF7F6FD074604E0FFF7F2FDE6
:100DD000C01B022823D828688007F7D42078000792
:100DE0002CD57948A169D9B1C0F80090FFF7E2FD90
:100DF000074604E0FFF7DEFDC01B02280FD8686A33
:100E00008007F7D571484FF4FA510068B0FBF1F054
:100E1000009000BF0098411E0091FAD20EE080E0E1
:100E2000C0F80080FFF7C6FD074604E0FFF7C2FDEB
:100E3000C01B022875D8686A8007F7D4207840075D
:100E400060D5E8690027C00008D4E86940F0805008
:100E5000E861E869012700F0805000905C48016873
:100E6000C90513D40168834641F480710160FFF71E
:100E7000A1FD824606E000BFFFF79CFDA0EB0A0043
:100E800064284ED8DBF80000C005F5D5E0680128DD
:100E90000AD008B1052813D0286A20F00100286282
:100EA000286A20F0040002E0286A40F0010028626D
:100EB000E06841F2883B98B1FFF77CFD82460BE089
:100EC000286A40F004002862EEE700BFFFF772FDD9
:100ED000A0EB0A0159455AD8286A8007F6D50CE0DC
:100EE000FFF768FD824605E0FFF764FDA0EB0A010D
:100EF00059454CD8286A8007F6D41FB1E86920F01C
:100F00008050E861E06988B36968C1F38101022912
:100F100044D00228C6F8608004D0FFF74BFD044699
:100F200038E034E0FFF746FD074604E0FFF742FDF6
:100F3000C01B02282BD828688001F7D4206AB0F59E
:100F4000803F05D16868A16820F4003008436860DC
:100F5000D4E908010843696821F474110843686002
:100F6000C6F86090FFF726FD044606E025E000BFC6
:100F7000FFF720FD001B022809D828688001F7D55B
:100F80001BE000BFFFF716FD001B022802D903205B
:100F9000BDE8F88F28688001F4D40EE00128F7D06E
:100FA0006868226A00F48031914204D1616A00F4D9
:100FB0007010884201D00120EAE70020E8E7000035
:100FC0000010024000004242800442420C00002017
:100FD0000070004010B5401EB0F1807F01D30120A9
:100FE00010BD4FF0E02460610F21601700F0B4FDE8
:100FF0000020A06107202061002010BD70477047CD
:1010000070B590F83C20012A26D0012480F83C409D
:10101000022280F83D2003685A689D6822F070061D
:101020000A6832435A600D4B02689A4208D0B2F106
:10103000804F05D00A4B9A4202D00A4B9A4204D103
:10104000496825F080031943916080F83D400021F4
:1010500080F83C10084670BD022070BD002C014095
:10106000000400400008004070B50068B0F1804FF7
:1010700012D1124C124D207801280ED002280BD12B
:101080000021104800F072FA686000210D4800F05D
:1010900089F92078401C207070BD0021094800F0BB
:1010A00065FA2860074801680A6A22F00A020A62A3
:1010B0000068016A41F002010162EAE710000020C5
:1010C000B0000020200000202DE9F041054690F8F6
:1010D0003C0000260C46012810D0012085F83C0079
:1010E00072B1042A1CD0082A2CD00C2A50D0012618
:1010F000002085F83C003046BDE8F0810220FBE787
:10110000D4E90012E368286800F012FC28688169BD
:1011100021F00C01816128688169A26811430FE008
:10112000D4E90012E368286800F02EFC2868816981
:1011300021F44061816128688169A26841EA022145
:101140008161D5E72868D4E9002C277B036A016A0E
:1011500021F480710162C16923F4007321F003015D
:1011600041EA0C0121F0F00C39074FF400774CEA0A
:10117000116107EA02221A43C16102622868C1694B
:1011800021F00C01C1612868C169A26811432BE0FC
:101190002868D4E90021E768036AD0F820C02CF45D
:1011A000805CC0F820C0D0F81CC023F400532CF49D
:1011B000407C4CEA012121F4704C4FF6FF7101EAAA
:1011C00007314FF4005741EA0C0107EA02321A4393
:1011D000C16102622868C16921F44061C161286867
:1011E000C169A26841EA0221C16181E710B504002A
:1011F00003D094F83D0010B107E0012010BD00209D
:1012000084F83C00204600F01FF8022084F83D00DE
:10121000211D206800F042FB012084F8460084F87C
:101220003E0084F83F0084F8400084F8410084F8D0
:10123000420084F8430084F8440084F8450084F8B0
:101240003D00002010BD000000B585B000210091D8
:101250000191029103910068B0F1804F28D11548A7
:10126000C16941F00101C161C16901F0010104914D
:10127000816941F0040181618069694600F00400E0
:1012800004904FF4004000900B48FFF79DFA0B4884
:10129000416821F4407141F0E06141F480714160A6
:1012A000002211461C20FFF7F1FB1C20FFF7E0FB9A
:1012B00005B000BD001002400008014000000140E0
:1012C00030B50446002551B104290DD0082910D0AD
:1012D00094F8410094F84520012811D10EE094F8CB
:1012E0003E0094F84220F7E794F83F0094F843203A
:1012F000F2E794F8400094F84420EDE7012A01D089
:10130000012030BD022059B1042912D0082919D07A
:1013100084F8410084F845000C2938D0012534E0D8
:1013200084F83E0084F842002068C26842F002025D
:1013300010E084F83F0084F843002068C26842F05F
:10134000040207E084F8400084F844002068C26882
:1013500042F00802C2600122206800F0DBFA0E4968
:101360002068884208D0B0F1804F05D00B498842F0
:1013700002D00B49884204D1816801F00701062997
:1013800003D0016841F001010160284630BD2068AA
:10139000C26842F01002DDE7002C0140000400406A
:1013A0000008004070B50D0004464FF0000607D05D
:1013B000042D0AD0082D0DD00C2D10D001262FE0C1
:1013C0002068C16821F002010DE02068C16821F0A9
:1013D000040108E02068C16821F0080103E02068EA
:1013E000C16821F01001C16000222946206800F088
:1013F00091FA2068016A41F21112114207D1016A83
:101400009210114203D1016821F001010160012015
:1014100045B1042D09D0082D0AD004F8410F2071E0
:10142000304670BD04F83E0FF9E704F83F0FF6E7C9
:1014300004F8400FF3E72DE9F04104460068C66860
:1014400005694FF00007A90713D5B10711D5F91E9B
:10145000016101202077206880698007204602D042
:10146000FFF702FE04E000F07EF8204600F07CF872
:101470002777680716D5700714D521686FF0040028
:101480000861022020772068806910F4407F2046A0
:1014900002D0FFF7E9FD04E000F065F8204600F017
:1014A00063F82777280715D5300713D521686FF023
:1014B00008000861042020772068C0698007204662
:1014C00002D0FFF7D1FD04E000F04DF8204600F017
:1014D0004BF82777E80616D5F00614D521686FF08B
:1014E00010000861082020772068C06910F4407F50
:1014F000204602D0FFF7B8FD04E000F034F82046A3
:1015000000F032F82777E80708D0F00706D0216806
:101510006FF001000861204600F027F8280608D582
:10152000300606D521686FF0800008612046FFF77D
:1015300065FD680608D5700606D521686FF0400085
:101540000861204600F027F8A8060AD5B00608D59D
:1015500021686FF0200008612046BDE8F041FFF7E8
:101560004EBDBDE8F08170477047704702460020CD
:1015700041B1042909D008290AD00C2901D11068E9
:10158000006C70471068406B70471068806B704744
:101590001068C06B7047704770B5040004D094F8B1
:1015A0004100002510B106E0012070BD84F84050D4
:1015B000204600F023F8242084F841002068C16808
:1015C00021F40051C160204600F020FA2068016932
:1015D00021F4904101612068416921F02A014161B3
:1015E0002068C16841F40051C1606564202084F81E
:1015F000410084F842006563002070BD30B585B0BD
:1016000000240094019402940394006814498842D1
:1016100024D11448816941F480418161816901F4D8
:1016200080410491816941F00401816180690E4D1E
:1016300000F0040004904FF400700090022001902C
:101640000320039069462846FFF7BEF82815CDE928
:101650000004694628460294FFF7B6F805B030BD8D
:101660000038014000100240000801402DE9F84315
:10167000044690F84100984616460D46202802D0B0
:101680000220BDE8F88385B17EB10020606421208E
:1016900084F84100FFF78EF9A6848146E684A068AD
:1016A0002027B0F5805F02D003E00120E9E7206940
:1016B00010B12E4600250EE000260CE080212046C9
:1016C00000F000FAA8B9C6B116F8010B216848600D
:1016D000E08C401EE084E08C4B464FF00002CDF8D9
:1016E00000800028EAD14FF04001204600F0EAF9DE
:1016F00040B184F841700320C3E735F8020BC0F312
:101700000800E3E784F841700020BAE7FEE7000034
:1017100030B585B0002000900190029003901648EB
:10172000816941F020018161816901F0200104910A
:10173000816941F004018161816901F00401049132
:10174000816941F00801816180690C4D00F0080059
:101750004FF480740490002221462846FFF724F9B4
:1017600001210320CDE90210CDE900416946284658
:10177000FFF72AF805B030BD00100240000C014010
:1017800010B586B000241848059404940094019480
:1017900002944FF08041039401604721C0E9011495
:1017A0004FF6FF71C0E9031480218161FFF71EFD30
:1017B00008B1FEF7F4FF049404A90B480594FFF761
:1017C0001FFC08B1FEF7EBFF0120CDE900400294B9
:1017D0000022694604480394FFF776FC002801D0F4
:1017E000FEF7DDFF06B010BD200000200C4810B54C
:1017F0000A4901604FF4E1314160002181600C220F
:10180000C160C0E904128161C161FFF7C5FE002813
:1018100003D0BDE81040FEF7C2BF10BD0038014044
:1018200068000020FEE7FEE770477047FFF7C8B882
:1018300030B58FB028216846FEF78BFC14210AA82A
:10184000FEF787FC01210804CDE900100024029472
:1018500002250491CDE907504FF4E0100990684645
:10186000FFF728FA08B172B6FEE70F20CDE90A05A6
:101870004FF48060CDE90C4002210AA80E94FFF7D6
:1018800037F9002801D072B6FEE70FB030BD7047BF
:101890000148FFF7D0BD000020000020F0B502682D
:1018A000194B1A4C1A4D4FF08047984205D0B84258
:1018B00003D0A04201D0A84203D122F070064A68AA
:1018C0003243984205D0B84203D0A04201D0A8428A
:1018D00003D122F44074CA6822434C6922F080028A
:1018E000224302608A68C2620A688262984201D119
:1018F00009690163012141610169C90703D00169D7
:1019000021F001010161F0BD002C01400004004004
:101910000008004010B501F01F030121046A99403E
:101920008C430462016A9A401143016210BD0000B9
:1019300070B5056A046A24F00104046284690F4EDC
:10194000B04208D0B0F1804F05D00D4EB04202D069
:101950000C4EB04203D124F00304144301E044F0E0
:1019600001041A0724F0F00444EA126225F00A0385
:1019700001F00A0119438261016270BD002C01402F
:10198000000400400008004030B5046A056A25F0F4
:1019900010050562856925F4407545EA022222F4A6
:1019A00070454FF6FF7202EA033224F0A0032A4387
:1019B000A02404EA011119438261016230BD01686B
:1019C0000C3151E8002F22F4907241E80023002BE3
:1019D000F5D10168143151E8002F22F0010241E8ED
:1019E0000023002BF5D1016B012909D101680C31CD
:1019F00051E8002F22F0100241E80023002BF5D11E
:101A0000202180F8421000210163704770B5044620
:101A100000680169E26821F44051114301612169C4
:101A2000A0680843616908432168CA6841F20C63F1
:101A30009A430243CA6020684169A26921F4407157
:101A4000114341611E492068884202D1FFF7FCF82A
:101A500001E0FFF7E9F800EBC00101EB001260685C
:101A600064218000B2FBF0F3B3FBF1F36FF01806D2
:101A70007343B2FBF0F5B2FBF0F605EB83053223BE
:101A800003EB0515B5FBF1F5B6FBF1F605F0F00536
:101A900005EB0615B2FBF0F6B2FBF0F0B0FBF1F08F
:101AA0006FF01802504306EB800003EB0010B0FB10
:101AB000F1F0216800F00F002844886070BD00003C
:101AC000003801402DE9F843984617460D46044674
:101AD000089E24E0701C22D0FEF76CFFA0EB0800EB
:101AE000B0421AD8CEB12068C168490717D5802DF9
:101AF00015D0402D13D00168C94309070FD40168E0
:101B00000025406800902046FFF759FF08206064D8
:101B100084F840500120BDE8F8830320FBE72068EB
:101B2000006835EA000004D00020B842D2D000207E
:101B3000F1E70120F9E7FEE70FB4054B10B503A963
:101B4000044A029800F0EAF810BC5DF814FB0000AB
:101B5000692400081C0000200907090E002804DB86
:101B600000F1E02080F80014704700F00F0000F151
:101B7000E02080F8141D704702E008C8121F08C159
:101B8000002AFAD170477047002001E001C1121FFE
:101B9000002AFBD1704700002DE9FF5F82B00021D1
:101BA000DDE90430020DDDF840B0034318D044F6FF
:101BB0001050A2F2FF3242431514119801281FD091
:101BC000A5EB0B00401C5FEA000A4FF000064E4FE9
:101BD000DFF83891B046504615D5CAF1000413E03D
:101BE000119801244AA3012801D16FEA0B01029840
:101BF000119AC0E90031C0E9024206B0BDE8F09F89
:101C0000CBF10000DFE704460021404A491842EBCF
:101C10000450CDE9001012E0E00707D032463B4601
:101C200040464946FEF7A0FA8046894632463B4682
:101C300010461946FEF798FA06460F466410002C27
:101C4000EAD1DDE90401DDE90023BAF1000F06DA8B
:101C5000FEF78AFA42464B46FEF786FA05E0FEF7A3
:101C6000CAFC42464B46FEF7C6FC04460E4600221E
:101C7000284BFEF747FD03D84FF0FF30014607E041
:101C80000022254B20463146FEF70EFCFEF722FDD2
:101C9000102409E0002C0ADB0A220023FEF73FFB98
:101CA000039B30321A55641E50EA0102F2D1641CC3
:101CB000039AC4F111031444119A012A03D001229A
:101CC00008430DD10AE0084304D000204FF0110B67
:101CD000119072E7A3EB0B056D1E0DE05B4504DD73
:101CE0004FF0000205F1010504E003DA4FF00002B5
:101CF000A5F10105002AECD002981199C0E9023142
:101D0000C0E9004579E70000000014400000F03F02
:101D1000300000000000F0430000E03F2DE9FF4FDD
:101D200095B09B468946064600250FE2252877D1C7
:101D300000242746F84A0121059400E0044316F8E0
:101D4000013F203B01FA03F01042F7D130782A28F6
:101D500011D06FF02F033078A0F13002092A16D885
:101D6000059A44F0020402EB820203EB42021044A3
:101D7000761C0590EFE759F8042B0592002A03DA48
:101D8000504244F40054059044F00204761C30782C
:101D90002E2816D116F8010F44F004042A280DD07D
:101DA0006FF02F023078A0F13003092B09D807EB30
:101DB000870302EB4303C718761CF3E759F8047B4B
:101DC000761C30786C280FD006DC4C2817D0682899
:101DD0000DD06A2814D104E0742810D07A280FD1CD
:101DE0000DE044F400140AE044F4801401E044F4EB
:101DF00040147278824202D104F58014761C761C5D
:101E0000307866280BD013DC582877D009DC0028FE
:101E100075D04528F6D04628F4D047281AD19DE140
:101E200018E0632835D0642879D0652812D195E16F
:101E3000702873D008DC6728F1D069286FD06E282D
:101E40000DD06F2806D1B5E073282CD0752875D039
:101E5000782874D05A46179990476D1C75E1C4F3E1
:101E60000250022809D003280DD0D9F80010042808
:101E70000DD00D6009F1040967E1D9F80010EA17E7
:101E8000C1E90052F6E7D9F800100D80F2E70D70B5
:101E9000F0E719F8041B8DF8001000208DF8010000
:101EA000EA46012003E059F804AB4FF0FF30610728
:101EB0004FF0000102D40DE008F101018846B9425B
:101EC0000FDA8045F8DB1AF808100029F4D108E091
:101ED00008F1010188468142FADB1AF8081000294E
:101EE000F6D105985B46A0EB080721463846179ABD
:101EF00000F094FA284400EB080507E04DE029E1E2
:101F00000DE01AF8010B5A4617999047B8F10108ED
:101F1000F7D25B4621463846179A13E142E00A227F
:101F20000092C4F302524FF0000A022A08D059F876
:101F300004CB032A4FEAEC710AD00DE029E02AE035
:101F400009F1070121F00702F2E802C1914609E018
:101F50000FFA8CFC4FEAEC71042A03D14FFA8CFC87
:101F60004FEAEC71002907DA0A460021DCF1000C87
:101F700061EB02012D2202E0220504D52B228DF80F
:101F80000420012203E0E20701D02022F7E7904677
:101F900059E00A2102E010220DE010214FF0000A62
:101FA00000910BE010224FF0000A44F004040827CF
:101FB000009203E008224FF0000A0092C4F302529C
:101FC000022A05D059F804CB0021032A08D009E0E1
:101FD00009F1070121F00702F2E802C1914605E08C
:101FE0001FFA8CFC042A01D10CF0FF0C4FF0000802
:101FF000220728D5702806D0009B83F0100353EAEF
:102000000A0305D00EE040228DF80420012208E0EA
:102010005CEA010206D030228DF804208DF805001C
:1020200002229046009B83F0080353EA0A030AD178
:102030005CEA010201D1620705D530228DF8042047
:102040004FF001087F1E582804D034A003900EA83A
:1020500002900DE036A0F9E753466046009AFEF77D
:102060005EF984460398825C0298401E02900270DA
:102070005CEA0100F0D1029806A9081A00F1200AD2
:10208000600702D524F4803400E00127574502DDC3
:10209000A7EB0A0000E0002000EB0A010090059881
:1020A0004144401A0590E00306D45B462146179A46
:1020B000059800F0B3F90544002706E001A85A4648
:1020C000C05D179990476D1C7F1C4745F6DBE00308
:1020D0000CD55B462146179A059800F09FF90544F8
:1020E00004E030205A46179990476D1C0099481E0D
:1020F00000900029F5DC08E0029802995A46007821
:10210000491C0291179990476D1CBAF10001AAF180
:10211000010AF1DC65E100000928010030313233A9
:102120003435363738396162636465660000000013
:1021300030313233343536373839414243444546FD
:102140000000000000F058F90544761C30780028A3
:102150007FF4ECAD19B02846BDE8F08F620700D4DB
:10216000062709F1070222F0070CFCE80223E146EA
:1021700003F000485FEA080C02D00FF2702C0DE06B
:102180005FEA045C02D50FF2682C07E05FEAC47CCA
:1021900002D00FF2602C01E0AFF2700C4FF0FF386C
:1021A00023F00043CDF850C065280CD006DC45284C
:1021B00009D046281DD047283DD13DE0662818D0DB
:1021C00067287ED138E00021112F01DB112000E0CB
:1021D000781CCDE9000106A90EA8FFF7DDFCDDE9BA
:1021E0000F010E9A03910021009207F1010A049158
:1021F0004DE04FF000400097CDE9011006A90EA870
:10220000FFF7CAFCDDE90F0203920E9B1199002231
:10221000DDF80CA00093049211B9791C00EB010ABF
:10222000B7EB0A0004D4C0F1FF3007F1010A0490B3
:10223000AAEB0700019044E0012F00DA01270021FA
:10224000112F01DD112000E03846CDE9000106A97B
:102250000EA8FFF7A1FCDDE90F010E9A0391002102
:1022600004910092BA4621070CD40399514500DA33
:102270008A46BAF1010F05DD009AAAF10101515C0D
:10228000302908D0B84202DA10F1040F06DA012131
:10229000CDE9011015E0AAF10101E9E7002805DC0C
:1022A000049901440491AAEB000102E0411C51454C
:1022B00000DD8A460499401A401C01904FF000400E
:1022C0000290200704D40198504501DBCDF804802A
:1022D00000208DF84F0002980DF14F07B0F1004F2C
:1022E00025D02B200E9002984FF0020800280CDA1F
:1022F000404202902D200E9007E00A210298FDF73F
:10230000F8FF3031029007F8011DB8F10001A8F183
:102310000108F2DC02980028EFD1791E0E980870AF
:10232000307800F0200040F0450007F8020D12A8B8
:10233000C01B00F107081498007800B1012000EBE1
:102340000A01019801EBE07105984144401A401ED2
:102350000590E00306D45B462146179A059800F0E5
:102360005DF805441498007818B15A4617999047BB
:102370006D1CE00324D55B462146179A059800F0B2
:102380004DF805441CE00498002807DBDDE9030153
:10239000884203DD0098405C179901E017993020CE
:1023A0005A469047049805F10105401C0490019895
:1023B000401E019004D12E205A46179990476D1C5B
:1023C000BAF10001AAF1010ADDDC05E017F8010B02
:1023D0005A46179990476D1CB8F10001A8F1010801
:1023E000F4DC5B462146179A0598ABE62D00000009
:1023F0002B000000200000002DE9F04104460025DC
:102400001E461746880404D405E039462020B0470C
:102410006D1C641EF9D52846BDE8F0812DE9F04118
:10242000044600251E469046C80301D5302700E02B
:102430002027880404D505E041463846B0476D1C86
:10244000641EF9D52846BDE8F081000010B50446A9
:10245000FEF7E4FB0349B0FBF1F16143491EFDD2F5
:1024600010BD000000093D0013B54FF6FF730122B7
:1024700069460248FFF7FAF800981CBD6800002082
:10248000FEF7A6FAFFF7D4F9FFF742F9FFF7AEF926
:10249000FFF776F903A0FFF74FFB00BF00F006F847
:1024A000FCE70000676F0D0A0000000070B59AB0ED
:1024B00064216846FDF74DFE254C207840B3032883
:1024C00024D1244803C8081AA060FDF7D6FE224A8A
:1024D000224BFDF749FE4FF0FF32FDF7B7FEFDF747
:1024E000ECFE6060FDF7D6FE02460B461CA0FFF72F
:1024F00023FB00204FF080412070486201461C48B9
:10250000FEF750FF4FF47A70FEF74CF91AB070BD29
:102510000122184E150229463046FEF745FA1E20C4
:10252000FFF794FF002229463046FEF73DFA207857
:10253000401C20700E4801680A6A22F00A020A62F2
:102540000068016A016200210948FEF7B9FEDDE773
:1025500010000020B00000209CC420B07268A13F91
:10256000B5B1C7B0BEE0C0EB252E3266000000005A
:1025700020000020000C01400102020304050607B0
:1025800008090A0B0C0D0E0F1010000000000000CF
:102590000000010203040607080900000000010210
:1025A00003040000C42500080000002020000000F3
:1025B000781B0008E425000820000020A00400008B
:1025C000881B00080100000010000000000000004F
:1025D00000127A000000000000000000000000006F
:0425E00000000000F7
:04000005080000ED02
:00000001FF
